:020000041000EA
:1000000000B5324B212058609868022188439860DF
:10001000D860186158612E4B002199600221596106
:100020000121F02299502B49196001219960352056
:1000300000F044F80222904214D00621196600F024
:1000400034F8196E01211966002018661A6600F04E
:100050002CF8196E196E196E052000F02FF8012189
:100060000842F9D1002199601B49196000215960AB
:100070001A491B48016001219960EB211966A021F2
:10008000196600F012F800219960164914480160C1
:100090000121996001BC002800D000471248134993
:1000A000086003C880F30888084703B5996A0420EC
:1000B0000142FBD001200142F8D103BD02B5186610
:1000C0001866FFF7F2FF186E186E02BD00000240BE
:1000D000000000180000070000035F00212200005C
:1000E000F4000018222000A00001001008ED00E03C
:1000F00000000000000000000000000074B24E7A12
:1001000000200420F7010010C3010010C5010010F9
:10011000C1010010C1010010C1010010C101001097
:10012000C1010010C1010010C1010010C701001081
:10013000C1010010C1010010C9010010CB01001065
:10014000CD010010CD010010CD010010CD01001037
:10015000CD010010CD010010CD010010CD01001027
:10016000CD010010CD010010CD010010CD01001017
:10017000CD010010CD010010CD010010CD01001007
:10018000CD010010CD010010CD010010CD010010F7
:10019000CD010010CD010010CD010010CD010010E7
:1001A000CD010010CD010010CD010010CD010010D7
:1001B000CD010010CD010010CD010010CD010010C7
:1001C00000BE00BE00BE00BE00BE00BE00F04BF888
:1001D000103800BEF2EB8871F4BF00101CC0001094
:1001E0003402001090A31AE700202149086006C8D5
:1001F00081F3088810471F48006800282FD10DA4FC
:100200000ECC002902D000F012F8F9E71A491B4A77
:10021000002000E001C19142FCD1194988471949E9
:1002200088471949884700BEFDE701C901C29A42C3
:10023000FBD370471CC00010C0000020A80C002099
:1002400010CC0010000004200000042010CC00108E
:1002500000100420001004200000000070470B482C
:1002600003F07EFD0047EFF30580C0B27047000049
:1002700008ED00E0000000D0B80C0020F46A022075
:1002800005220010B90B001029230010575600005A
:1002900006005250ABB3605310B600100600525027
:1002A000861C030220B60010060052505422A29D64
:1002B0002CB6001005005250DE65F46810CC00101A
:1002C000F8B5C04610B5064C2378002B07D1054B76
:1002D000002B02D0044800E000BF0123237010BDB2
:1002E000B80F00200000000038A60010044B10B525
:1002F000002B03D00349044800E000BF10BDC046F6
:1003000000000000BC0F002038A6001070B5624C41
:100310002568002D00D17DE0AF46604B2360604B27
:100320009A69920600D58AE05E4A0021525E7F2AD1
:1003300000D193E020225A4910008B6918401A42DC
:10034000FAD17F23584A0B601368013B00D583E044
:100350001360632B00DC70E000230220236070BD7B
:10036000524B23604E4B9A69920668D4504D4D4AC9
:100370002E780021525EB24277D0202248491000E8
:100380008B6918401A42FAD10E602A780D2A73D070
:100390007F2A56D0444801684B1C036045484254AC
:1003A000D7E7454B23603E4B9A69920647D43D4AB6
:1003B0000021525E0A2A48D02021394A9369194205
:1003C000FCD10A231360C7E73C4B2360344B9A6986
:1003D000920634D4334A0021525E202A54D0202180
:1003E0002F4A93691942FCD12C4B116001202360E4
:1003F000B5E7334B2A4A236093691021DB061ED4EC
:1004000093691942FCD11268294B01201A70274BBD
:100410002360A4E764220021264804F0A7FC224BB5
:100420001F4A1D609369DB0607D4102193691942A6
:10043000FCD1136893691942F8D0214B2360012045
:100440008DE71E4B0120236089E720219A69114224
:10045000FCD10D221A60AFE71060EEE720219A6907
:100460001142FCD10D221A6064E720219A691142E1
:10047000FCD10D221A6080E70B4B0E4A1B68D0544A
:100480000D4B012023606AE720219A691142FCD1BB
:100490000D221A60A3E7C046BC1100201A03001009
:1004A00000400340E4120020E4100020600300102C
:1004B000F06A0220F4100020A2030010C80300100C
:1004C000F2030010F0B5C646154B00B51B68002BB3
:1004D00025D1144B1B68002B1ED1002290464246AA
:1004E000114F124D3B68124E2A60002B13DD002283
:1004F000340053009B189B00F31820009B6898471A
:100500002B680C345A1C3B682A609A42F1DB424645
:100510002A60002BEBDCFEE780BCB846F0BD9F46AE
:10052000E8100020F0100020C4110020C4100020AA
:10053000CC110020F0B5C646154B00B51B68002B4A
:1005400025D1144B1B68002B1ED100229046424639
:10055000114F124D3B68124E2A60002B13DD002212
:10056000340053009B189B00F31820009B689847A9
:100570002B680C345A1C3B682A609A42F1DB4246D5
:100580002A60002BEBDCFEE780BCB846F0BD9F463E
:10059000EC100020F0100020C8110020C81000202E
:1005A00044120020D0231B061B6870B5012B16D007
:1005B00016490B68092B05DD0022154B1A60FFF761
:1005C00081FF70BD5A001348D2189200124D841852
:1005D0006360A5600024013384500B60ECE70F4991
:1005E0000B68092B0BDC5A000D48D21892000A4DFB
:1005F00084186360A5600024013384500B600022DE
:10060000084B1A60FFF796FFDBE7C046C4110020D5
:10061000E8100020CC11002029060010C81100208D
:1006200044120020EC100020F0B5DE4657464E463E
:100630004546E0B502680400012383B0002A20D0BB
:100640004F4A91464A462260002B07D1012003B051
:10065000F0BCBB46B246A946A046F0BD494A4A4B4B
:1006600092469B6A12689342F0D3484E484D3368D5
:10067000484FD8132B6800B2D913474B09B298469C
:1006800018E0A023414E1B043360F023404DDB03F0
:100690002B60414B3F4F9846C02342465B0213609C
:1006A00080231B023B60374BA0209A46344BF0213D
:1006B00099464000344B394A9B6A934613600023A5
:1006C00002220093023300F07DFCC82329689B03BB
:1006D000994231DAA022920294463B6861445B421F
:1006E0003B602960872230685204904234DD4246E4
:1006F0004746126852423A60294FBC466044C918C6
:10070000284B80181B7830602960C013C91302225F
:1007100009B2009300B2022300F054FC1A4A916A15
:10072000936A214A94465A46126863449B1852467B
:100730005B1A1360002385E7BE231B0499421CDD6E
:10074000174A3B689446872230685B4261443B60AD
:10075000296052049042CADCC8229203904209DA0E
:1007600042464746126852423A60A027BF02BC4642
:100770006044C4E742461268C1E73B68B2E7C0463E
:1007800044060010E0120020004005404410002004
:1007900048100020401000203C10002024100020B1
:1007A0000080FDFF24020020E8800000F0B5DE4656
:1007B00057464E464546E0B502688346012387B05A
:1007C000002A22D0904A04925A4604991160002BC4
:1007D00007D1012007B0F0BCBB46B246A946A046EF
:1007E000F0BD8A4A8A4B9B6A039212680592934233
:1007F000EFD3884B884E98461B68884DD8133368D2
:10080000874CD91300B209B217E0824B824E98464A
:10081000A02342461B041360F023DB037F4D3360AB
:10082000804BA0202B608023F0217D4C1B02236095
:10083000764B40000393744B0493754B7A4F9B6A3D
:1008400002223B6000230093023300F0BBFBC8226E
:1008500033689203934200DBC5E022685142A02234
:1008600092029446634421603360424687201268B6
:100870004004824200DCAAE06C4C2868A446404256
:1008800028606244121840465B183360DB1319B2CB
:10089000674B02601B78D21310B20093022202232E
:1008A00000F090FB8C22072364216420520000F0AA
:1008B000E7FA8C228720072364215200800000F091
:1008C000DFFADC22072364216420520000F026FBBB
:1008D000DC22BE21072352006420490000F01EFBE9
:1008E0004B4B9A6A3B689B1A524A9446524A63445D
:1008F0001360524B9A4664239946613B98464B4697
:10090000BE26554664241FB276002B68002B07DDF7
:1009100043460A22009339000A2320B200F07CFCEF
:100920000A34A4B20435B442EFD14B460A339BB229
:10093000994670239C46E244A145E0D100230A2257
:100940006E216E2000930A3300F066FC01230A2218
:100950006E2178200093093300F05EFC02230A2206
:100960006E2182200093083300F056FC03230A22F4
:100970006E218C200093073300F04EFC04230A22E2
:100980006E2196200093063300F046FC05230A22D0
:100990006E21A0200093053300F03EFC06230A22BE
:1009A0006E21AA200093043300F036FC07230A22AC
:1009B00000936E210333B42000F02EFC144B9A6A8E
:1009C0001D4B1B689B18039A13600023FCE6C8208C
:1009D0008003824215DAA024A402A4462868624457
:1009E000404228604EE7BE221204934207DD22688F
:1009F00051420E4A216094466344336035E72168D2
:100A000033E728683EE7C046C8070010DC12002024
:100A10000040054034100020381000202C10002029
:100A2000301000200080FEFF281000200080FDFF15
:100A300024020020E8800000C41200207CA60010E0
:100A400003680122F0B5002B21D0174B0360002A68
:100A50001BD0164B9A69920617D4154E154D346863
:100A6000154A2F5D0021525EBA4215D020210F4A4F
:100A700093691942FCD10134176034602B5D002268
:100A8000002BE2D103600220F0BD0120FCE7084A00
:100A90000024084D1360F1E720219A691142FCD12E
:100AA0000D221A60E2E7C0464A0A001000400340E7
:100AB000D010002058110020E4120020036870B507
:100AC0000400002B4CD02C4D9F462C4B03602C4B2C
:100AD00001209A6A2B4B1B689A4240D32A492B4B20
:100AE0000A0023CB23C223CB23C21988224D1180B5
:100AF0009B78937000232B60254B28002360FFF721
:100B00009FFF01282ADD2049224B0A0043CB43C224
:100B100043CB43C203CB03C21B88138000232B604B
:100B20001D4B28002360FFF78BFF012816DD0022F4
:100B30001A4B1A601A4B2360FFF7E8FB01280DD906
:100B4000184D19492A00194805F08EF92B685A1ECC
:100B5000062A01D8164A1370074DD4E7002070BD4D
:100B6000144A074B94469B6A064A63441360034B3E
:100B700003600120F3E7C046C0110020CA0A00103C
:100B800000400540D81200205811002038A600105F
:100B9000F80A001054A60010200B0010BC11002011
:100BA000340B0010EC12002078A60010F410002086
:100BB0002402002040420F0070B504F049FA00F012
:100BC0005FF804F0B7FA254804F008FBD0231B06B1
:100BD0001B68012B21D0224A1368092B06DD002255
:100BE000204B1A60FFF76EFC002070BD0C210C003A
:100BF0005C431D481D4E05196B60AE6000252550F5
:100C00005C1C14600A2CEAD0614346187460184CCE
:100C10000233B4600D501360E1E7164A1368092BE4
:100C200005DD0022144B1A60FFF784FCDCE70C2181
:100C30000C005C4311480D4E05196B60AE60002539
:100C400025505C1C14600A2CEBD06143461874607C
:100C5000074C0233B4600D501360E2E7A5050010A5
:100C6000C4110020E8100020CC110020BD0A0010A3
:100C7000AD070010C8110020EC1000204412002025
:100C8000F0B5D6464F464646C0B56D498AB06D4868
:100C900004F0FAFA6C4906006A4804F0F5FA6B4968
:100CA0000500684804F0F0FA002380229946059375
:100CB000F82352025B0202920393C02304001B0339
:100CC000102202A906A89846049304F055F83100B2
:100CD000731C08310A03DB01134306A9102202A882
:100CE000079304F049F85A4B01270593A0230621E6
:100CF000DB0210209A46029300F0F6FA012310223C
:100D000000215048009704F023FB320000214D4899
:100D100002AB04F05FFB29006B1C0D310A03DB0101
:100D200013434C4A062113408022D20513430793F4
:100D300043460893484B112009935346069300F00D
:100D4000D3FA0123112201213E48009704F000FB51
:100D50002A0001213B4806AB04F03CFB4B468022B5
:100D60000593F82352025B0202920393434610223A
:100D700002A906A8049303F0FFFF2200A31C083277
:100D80001203DB01134306A9102202A8079303F004
:100D9000F3FF324B06211220059300F0A5FA06213D
:100DA000132000F0A1FA0621142000F09DFA03237D
:100DB000122202212348009704F0CAFA22000221DD
:100DC00002AB204804F006FBA023254ADB051A608D
:100DD000244A25495A60962292029A60234A1A614F
:100DE000234A116080215360224B97601361154A9A
:100DF000490253680B42FCD180211F4B89021361C9
:100E0000104A53680B42FCD1E0238021FF33536129
:100E10000C4AC90253680B42FCD14023FF33936153
:100E20001168164B0B431360A02286230121D205C3
:100E3000DB00D1500AB0E0BCBA46B146A846F0BDCE
:100E4000BCB2001000002050F4B20010D8B2001064
:100E500000020004FFFFFF9F204600445202300CB6
:100E6000F012002018002050280200201108010074
:100E70004000005009801F008F020000070700009B
:100E8000F0B5DE4657464E46454652189B46E0B5FD
:100E9000914237DADC00C54363B2A024ED179C46CB
:100EA000A4000540A54233DA0723F02799463133E1
:100EB0009846184C7F000AE046464010235C0131FA
:100EC000B343664609B23343235491421ADA0B1CEA
:100ED000B94201DBE023FF331BB2D843C017034004
:100EE0009800C0180123C00140190342E4D14E46C6
:100EF0004010235C0131B3435E4609B233432354AF
:100F00009142E4DBF0BCBB46B246A946A046F0BD28
:100F1000014DC9E7F01200207F020000F0B5DE4667
:100F200057464E464546E0B5121883B001939042AD
:100F300039DAF0240D1C6400A1423BDA29B2CC431B
:100F4000E4172140019B8D006D18D9004BB29C46DF
:100F50000123A0279B460633994631339846174C08
:100F6000ED01BF000AE046464910635C0130B3431F
:100F7000664600B233436354904214DAC143C91742
:100F80000140B94200DB0E495B4649190B42EAD1E8
:100F90004E464910635C0130B343019E00B23343B7
:100FA00063549042EADB03B0F0BCBB46B246A946AC
:100FB000A046F0BDE023FF331D1CBFE7F012002068
:100FC0007F020000F0B54546DE4657464E46844651
:100FD000E0B5150087B00393654410AB1C78029010
:100FE0000492A8427BDAF0220B1C5200914200DBF3
:100FF0000BE11BB2DA43D21713409E00F618A02370
:101000009B00984601239C4606339A46E7003133FD
:10101000994602987E4AF6017FB20591019409E053
:101020004C465B10D15C0130A143394300B2D1542E
:10103000A84214DAC343DB170340434500DB754B7A
:1010400061469B191942EBD154465B10D15C0130CB
:10105000A143019C00B22143D154A842EADBF0260F
:10106000039B0599581E4018031C00B2019C760092
:10107000B04200DBC2E01BB2D843C01703409E0061
:10108000F618A0239B00984601239C4606339A46F7
:10109000313399460298F601019705910AE04F46CF
:1010A0005B10D15C0130B943019F00B23943D15488
:1010B000A84213DAC343DB170340434500DB554B1B
:1010C00061469B191942EAD157465B10D15C013049
:1010D000B943214300B2D154A842EBDB0599039BED
:1010E0005D18A94200DB82E0029AE7007BB2D6439A
:1010F0000193A023F6179B0016409E4200DB82E07E
:10110000F0235B009846E03BFF3B9C4606339A4643
:101110003133080099463E4A03910AE049465B1084
:10112000D75C01308F43019900B20F43D754A842D6
:101130001ADA071C404502DBE023FF331F1C3FB2D5
:10114000FB43DB171F40BB00DB196746DB019B1924
:101150001F42E3D151465B10D75C01308F432743D8
:1011600000B2D754A842E4DB029B049E9C46013E99
:10117000664433B2DB43D817A023304000B2039952
:101180009B0098423DDAF0235B009C46DA3BFF3B34
:10119000994631339846019B01279B4601940AE00A
:1011A00044465B10D65C0131A6435C4609B2264337
:1011B000D654A9421BDA0E1C614502DBE023FF3343
:1011C0001E1C36B2F343DB171E40B3009B19DB0134
:1011D0001B181F42E4D15B10D45C013126004C4641
:1011E000A643019C09B22643D654A942E3DB07B0CB
:1011F000F0BCBB46B246A946A046F0BDE023FF3393
:1012000039E70448BFE7034E7AE7E023FF33F0E60F
:10121000F01200207F020000F0B54546DE4657463A
:101220004E468446E0B585B00D0003910EA90C78BA
:101230006244A04601900292904249DA2A005D1968
:10124000E3005BB29C46AA4242DA0723F0269A46A4
:101250003133994622487600019B19B2C943C91718
:101260001940A02309B29B00994200DB1D49E346C7
:10127000039A09E04C465B10C75C0132A7435C4609
:101280002743C754AA421CD013B2171CB34202DB37
:10129000E023FF331F1C3FB2FB430124DB171F4039
:1012A000BB00DB19DB015B181C42E3D15B10C45CA3
:1012B000013227005446A74344462743C754AA4255
:1012C000E2D1019B029A0133DC4601939342C3D1E0
:1012D00005B0F0BCBB46B246A946A046F0BDC0462C
:1012E000F01200207F020000094A83009446402249
:1012F000634410B51C68C0006240C02414408022C2
:10130000520113431C60034B9C466044416010BD76
:1013100004C0014000400140EFF3108072B6034A60
:101320001368002BFCD0BFF35F8F70472C0100D0F7
:10133000BFF35F8F0022024B1A6080F31088704762
:101340002C0100D070B5EFF3108C72B60D4D2B68E8
:10135000002BFCD0BFF35F8F0724CB08C618C05CFE
:1013600001230C40A3401C000440034207D1034367
:101370003370BFF35F8F2C608CF3108870BD10004A
:1013800000F0EEFF2C0100D0024B18688007C00F60
:101390007047C04600C006400021044B044ABFF31A
:1013A0005F8F02C39342FAD17047C046000100D05C
:1013B000800100D0044A1078431CDBB2172B00D9FF
:1013C000102313707047C0462C0200200123834075
:1013D000002904D0034A1360034A13607047034A8C
:1013E0001360FBE780E200E000E100E080E100E064
:1013F00001228240034B1B6813405A1E9341D8B20E
:101400007047C04600E100E0024B10309B6880004E
:10141000C058704700ED00E070B50D00EFF3108686
:1014200072B60F4A1368002BFCD0BFF35F8F0D4BD1
:1014300010309B6884001B590B4A934203D09D4295
:1014400001D000F0A5FF074B9B681D51BFF35F8FD4
:10145000BFF35F8F0022024B1A6086F3108870BDC5
:10146000240100D000ED00E0CD010010F0B5DE4613
:1014700057464E464546E0B50C0083B0EFF3108A60
:1014800072B65A4A1368002BFCD0BFF35F8F10224C
:10149000914681444A46564B96009B689D59554B50
:1014A00098469D4205D0A54216D0534FEB1B2F2BDB
:1014B00014D94F4B9B689D51BFF35F8FBFF35F8F74
:1014C00000224A4B1A608AF3108803B0F0BCBB4676
:1014D000B246A946A046F0BD1D00EAE701238340BD
:1014E0009B465A46454B1B681A4000925A46444B4D
:1014F0001A60BFF35F8FFEF7B6FE0190002803D09D
:10150000814501D000F044FF01232A009A439368EB
:101510009C4208D15FE04B005B189B00FB18996868
:10152000A14211D01A00062151560029F3DA009B7E
:10153000002B05D05A46334B1A60304B1A60B8E77F
:101540005A462F4B1A60B4E706215956002921DB71
:101550004A00501880003C188046A0689860E079E6
:10156000D871062020569871002824DBA488F81A28
:101570006405241544440019E0240005400D2402AC
:10158000204398805218204B9200BF181A78197087
:10159000BA71CCE70199002910D1FF3191711B4933
:1015A000918019490A789A71194ADB1B5B415A43A9
:1015B000120D0A70BBE7BD200002E2E7154A16498A
:1015C000D21A083A5002400D01439980134952083B
:1015D0000A43DA80ABE70621515613000029B7DA37
:1015E000019A002AEAD14546DBE7C046240100D033
:1015F00000ED00E0CD0100103002002000E100E02D
:1016000080E100E080E200E0F26A022000BDFFFF1E
:10161000AAAA00006A02002000F0FFFF00F8FFFF06
:10162000F8B5012504000543FEF71DFEEFF3108C0D
:1016300072B6214A1368002BFCD0BFF35F8F1F4E98
:101640002100B7681E4A1F4B891A49414B431B0DA5
:1016500059B28300F858A8421CD00623D3568B42B7
:101660001CD01223D3568B4222D01E23D3568B423A
:1016700020D02A23D35603208B4210D0124B1A7845
:101680001970A271BFF35F8F00220B4B1A608CF3AD
:101690001088F8BDB2680D48D050EFE70020430035
:1016A0001B189B00D218FF239371094B9380E5E729
:1016B0000120F4E70220F2E7240100D000ED00E071
:1016C00030020020AAAA0000F26A0220CD01001018
:1016D00000BDFFFF054B064A1360064A13605360C6
:1016E0009360D36013615361936170478080808001
:1016F00000E400E004E400E0024B9C466144890001
:10170000016070474000003483680B4810B5844680
:1017100061446244090112019A18591854684B68CF
:1017200001209C4201D802D00020C0B210BD126836
:101730000B689A42F9D8F7E7FFFFFF0FF8B5574655
:101740004E464546DE46E0B599460CAB1C780DABDF
:101750001B78060090469A460768002C11D1BC7B86
:10176000002C42D065003B682D19033D59194B7878
:10177000BB73002B00D1FB7300238B704B700B707D
:1017800004E065003B682D19033D5919B2682A4BE6
:1017900094464246E3181B0163441A604A465A6065
:1017A0000A9A9A600B9ADA6000238B704B700B7068
:1017B0007B7B9B46002B2BD022005946B8687B6868
:1017C00098473A68002816D05B4658465B005B4451
:1017D0005519033BA870D118D35C002B00D06B7057
:1017E0005B460C707B73A34513D0F0BCBB46B2467E
:1017F000A946A046F8BD5B465B005B44033BD3189B
:101800009C705119525D002A00D05A705B460B70D3
:101810007C7342464B46307D00F008FA051E06D028
:101820005346002B03D12100306800F021FC0E9BB1
:10183000002BDAD01D70D8E7FFFFFF0FF0B5DE46B2
:101840004E46574645460023E0B58DB00A936B4B94
:101850008200D3580B90994600239B464B46079332
:1018600000F06AF9079C06000F006268EFF310852C
:1018700072B61368002BFCD022000794BFF35F8F71
:101880002468637B9946002B67D092685C4B904636
:101890004B441B01984443461A685B6810001900CA
:1018A000801BB94100295FDD0B9800F0BFF90023D0
:1018B0000026984600279A46079C6368BFF35F8F0F
:1018C0005A461A6085F310885346002B08D1002829
:1018D000C6D10DB0F0BCBB46B246A946A046F0BD8D
:1018E0000A9B414618024B461843D047089009917D
:1018F0006268EFF3108572B61368002BFCD0079472
:10190000BFF35F8F0899099A002A48DB114303D07F
:10191000079B1B69002B5DD1079B1B68D97B0029A6
:1019200007D04A00521819688C4649466244033A67
:1019300051704A46DA734B46079A013BD168CA5C3C
:101940000132CA545B46079A13615368BFF35F8F35
:101950005A461A6085F3108882E7002300269846CD
:1019600000279A460020A7E7002901D100289BD133
:101970000021200000F0FEFA43461E685F689B6865
:10198000079A9A464346DB689846D3684B44013B26
:101990001B780A931B020343136100208CE7236921
:1019A000002BB9D033003C005B1A94411A0023008D
:1019B000A74219D89F421BD0594604910121039197
:1019C0004946029141460191514607980091FFF71F
:1019D000B5FEB7E700F0B0F8089A099B06000F00C3
:1019E00092197B419942E5D901225242D317E3E78C
:1019F0009642E1D901225242D317DDE7D4100020EC
:101A0000FFFFFF0F10B5124C6368002B04D00A21B2
:101A10001048FFF771FE10BD23000F4A1021206807
:101A200000F0C6F9032000F07BF8032000F06EF907
:101A300003200A4900F0B4F8FFF7BCFC084B9C46B1
:101A4000032360442375074B80006060DC60DEE7A1
:101A500078020020C0120020091700103D18001065
:101A600040000034D4100020F0B5D6464F4646461C
:101A7000C0B5EFF305833F22134018001038EFF391
:101A8000108C72B6204D2A68002AFCD0BFF35F8FFD
:101A90000122110081401D4C884661631C491700DA
:101AA0000E788A463100C1400F400A4209D1BFF387
:101AB0005F8F2F608CF31088E0BCBA46B146A84611
:101AC000F0BD14498200646A51588C420FD3124B06
:101AD000D25843469E4353461E70BFF35F8F002388
:101AE0002B608CF31088002AE6D09047E4E70B4A7D
:101AF0009B00904643441A681A60BFF35F8F00232F
:101B00002B608CF31088D7E7280100D000400540F7
:101B1000F36A0220C812002014100020D03F0540B4
:101B200010B50100024A0348FFF70CFC10BDC04687
:101B300018B30010F16A0220034B596A0A00986A30
:101B4000596A8A42FAD170470040054070B50400D6
:101B50000D00124A536A1900966A536A8B42FAD1F1
:101B60003000190024184D41AB4211D80ED02B0083
:101B70000A494A6A9A42FCD307D1084A02E0516AEC
:101B8000994202D1916AA142F9D370BDA642EED921
:101B9000012301246442E5175B42E9E70040054068
:101BA00070B504000D00EFF3108672B61A4A136880
:101BB000002BFCD0BFF35F8F002D1BD02000FFF760
:101BC00023FC164981420AD02000FFF725FC0121A1
:101BD0002000FFF7FBFB0123A340114A1360114BC8
:101BE000A400E550BFF35F8F00220B4B1A6086F311
:101BF000108870BD0B4BA200D5500122A2400A49AB
:101C000020000B7893430B700449FFF72FFC002151
:101C10002000FFF7DBFBE5E7280100D0691A001080
:101C20003860054014100020F36A0220F0B54F46DA
:101C3000D6464646C0B507002F4C616A0D00A66A1D
:101C4000616AA942FAD18B4208D805D00120E0BCD4
:101C5000BA46B146A846F0BDB242F7D9EFF3108AB2
:101C600072B6264801680029FCD0BFF35F8F0125BA
:101C7000BD402349204C8846097889462943C9B28A
:101C80008C46414660460870391D1E4889006563D0
:101C90000A51B9000B50216A0020294219D0616A0B
:101CA0000800A66A616A8142FAD18B4219D801D133
:101CB000B24216D8CC451DD00F4B1F201D625D636C
:101CC00001230740BB40104A1E38136043464A4672
:101CD0001A70BFF35F8F0022084B1A608AF31088D6
:101CE000B5E70020BFF35F8F0022044B1A608AF330
:101CF0001088ACE70120ECE700400540280100D047
:101D0000F36A0220C812002080E200E0EFF3108C9A
:101D100072B60A490B68002BFCD0BFF35F8F01231A
:101D20008340074A0748136202789A430270BFF360
:101D30005F8F00230B608CF310887047280100D060
:101D400000400540F36A022070B50500140016003B
:101D5000002915D00C00002A12D080686B689847C3
:101D6000296800280ED073009B196200033B1219EA
:101D7000CB18033A9C7088188A5C002A15D106702B
:101D8000200070BD63001B197200033B9219CB1831
:101D9000033A9E7088188A5C002A02D104703400CD
:101DA000EEE75A7004703400EAE75A700670E7E70D
:101DB00030B583600023CCB24373013304734260B7
:101DC0008373C4730D000068012C06D9421C0133D3
:101DD000DBB2137003329C42F9D1FF2129404B0042
:101DE0005918002340180338437030BDF8B5CE466B
:101DF000474606000C0080B5002907D04D00036857
:101E00006D18033D5A195778002F04D12000C0BC2B
:101E1000B946B046F8BD7900C9190339884643442C
:101E20005978894600215970517073683A00210031
:101E3000806898473368002814D042469A189470F6
:101E400059195B5D002B00D053700F702700494675
:101E50003000FFF7CBFF390002003000FFF774FFBE
:101E60000400D3E7424641465D19AF709A185B5CA7
:101E7000002B00D06B701470E9E7C046F0B55746F0
:101E80004546DE464E46E0B50D006B0001685B1925
:101E9000DF1E0400C85D83B00192CA1900284CD02F
:101EA00043001B18033BCB185E78B446002E16D1B6
:101EB000019E002E3ED0E67B002E04D073009B19BD
:101EC000CB18033B5D70E57300282FD100235370BE
:101ED00003B0F0BCBB46B246A946A046F0BD7200B6
:101EE0006244033A89184A78904600224A70914623
:101EF0005A70010032002000FFF726FF4346824659
:101F0000002B07D05B0021684344033BCB185A7871
:101F1000002A16D1424651462000FFF715FF2168DE
:101F2000019BCA19002BC6D10028CFD043001B1833
:101F3000033BCB1800219970C8E7019B002BBAD155
:101F4000C4E750008018033809184878834648468B
:101F50004870587041462000FFF7F6FE594680460B
:101F60002000FFF743FF414602002000FFF7ECFE90
:101F70008046CFE7F0B557464546DE464E46E0B5CB
:101F800083B00191457B04006B0000685B19DF1E84
:101F9000C15DC21900294ED04B005B18033BC3182A
:101FA0005E78B446002E18D1019E002E40D0E67B0C
:101FB000002E04D073009B19C318033B5D70E573BA
:101FC000002931D1002328005370617303B0F0BCA5
:101FD000BB46B246A946A046F0BD72006244033A31
:101FE0008018427890460022427091465A70200034
:101FF0003200FFF7A9FE43468246002B07D05B0064
:1020000021684344033BCB185A78002A17D1424633
:1020100051462000FFF798FE019B01002068C2197D
:10202000002BC4D10029CDD04B005B18033BC31853
:1020300000209870C6E7019B002BB8D1C2E7500082
:102040008018033809184878834648464870587005
:1020500041462000FFF778FE594680462000FFF7F2
:10206000C5FE414602002000FFF76EFE8046CEE727
:1020700070B5040000292CD0437B8B422ED005681C
:1020800048004018033828188278002A21D05300CD
:102090009B18033BEA5CEE188A4202D11BE0002A3F
:1020A00008D053009B18033BEB185A788A42F6D1AC
:1020B00042785A7000230122837043702000FFF79A
:1020C000DDFE617B02002000FFF73EFE6073012011
:1020D00000E0002070BD43783370EBE70122190067
:1020E000FFF7CCFE60730120F4E7C04610B5040092
:1020F000FFF760F901002000FFF7FEFAFF232371CC
:10210000BFF35F8F10BDC04610B50400FFF752F952
:1021100001002000FFF7F0FAFF23A380BFF35F8FD9
:1021200010BDC046F8B5040006200D0000F094FA7A
:10213000002844D02A4B2B49E21853425A418023AD
:10214000DB039C469205284B62441A60274B1A60B9
:1021500010008B689843FBD1214B8021E3185A4231
:102160005341234A5B0049009952062000F074FA5B
:102170002900C00001F04EFEC30921D140270121F2
:10218000260080256162A36200232C36AD01354311
:102190002B60062000F060FA3900800001F03AFE62
:1021A0006023E26A53406E221A4080235B0133436E
:1021B0001A60104B236310232B600D3BA364F8BD02
:1021C0000D4A934203D900230C4F0D49D8E77F22D3
:1021D0001040013040089F0119003F180300CFE76D
:1021E0000080FCBF00C0004000E0004000F0004064
:1021F000E412002001030000FEFF0000C0FF3F00CA
:10220000FFFF00002C4B2D4A70B51A602C4A2D4B55
:102210002D491A6014008B689C43FBD12B4D2C4E2A
:10222000B54208D2013E761BB60808CD9847230078
:102230000134B342F9D100F0B1F8264A214B1A60BB
:10224000214A9368DB43DB01DD09002BF9D14022F1
:10225000214B224C224E9A675A671A67DA66B442BB
:1022600008D223682000002B20D00834FFF74CFF51
:10227000B442F6D31B4E1C4CC022A168300002F0C1
:102280007BFDA660FFF788F8FFF724FAFFF7BAFB9B
:10229000164C174EB44208D2013E361BB60808CC85
:1022A00098472B0001359E42F9D170BD0834FFF7E5
:1022B0001DFFB442D5D3DDE700E00040BFCDFBFEFB
:1022C000FE7F3C0000F0004000C00040900C002069
:1022D000A00C0020FFFFFF0100F00140800C002057
:1022E000900C00200000002000ED00E0A00C002079
:1022F000A80C0020094A03001068002805D00849EE
:10230000C3188B4207D81360704706480449C318A6
:1023100010608B42F7D901204042F5E7C010002041
:1023200000000420F46A022000BEFDE710B50C0096
:1023300082B01900002A09D0064B019200930200D6
:102340002300054801F0CCFC00BEFDE7034B1A005A
:10235000F3E7C0463CB300104CB3001048B3001084
:102360000FB400B5084883B002F03CFE049B002B7C
:1023700007D005A91800019101F0D2FC034802F032
:1023800031FE00BEFDE7C0467CB300108CB30010E8
:1023900010B50148FFF7E4FF90B3001030B50C20F2
:1023A00083B000F0B7F9FEF7EFFF00280ED0944B92
:1023B000944A1A605A609A60DA601A615A619A61A6
:1023C000DA611A62904A5A6203B030BD8F4CA0673E
:1023D00000F0A8F901228E4B1A60636C012BFCD12E
:1023E00003228C4B1A60894A936B012BFCD1013379
:1023F0000121894A89480093043300F033F9052309
:10240000874A00930121874800F02CF9864B5A68CF
:10241000FF2A02D8802252005A608022784C7D4BDD
:1024200021691201804D1A60002905D0606901F010
:10243000F1FC01300138FDD1E0217B4B02201A680C
:102440001140802252012A4311601968484003213B
:102450000140116004219A681142FCD08022802141
:1024600092012A4309011160802252005A606F4B89
:1024700023616F4B5968FF2900D85A600321644AD1
:102480006B4B116002399A681142FCD0E0201A6847
:102490001040802252011A431060186848400321FE
:1024A00001400220116062498A681042FCD08022FB
:1024B00092011343802212011A6080225D4B520068
:1024C0004A6063615C4B5968FF2900D85A608022DA
:1024D0005A4BE1691201584D1A60002905D0606914
:1024E00001F098FC01300138FDD1E02252490B681F
:1024F0001A4080235B012B431A60802380229B01BA
:102500002B4312011A6080223E4B52004A60E36165
:102510004B4B5968FF2900D85A608022494B216AE9
:102520001201474D1A60002905D0606901F072FC64
:1025300001300138FDD1E02241490B681A40802367
:102540005B012B431A60802380229B012B431201E5
:102550001A60802380225B004B602A4BD2022362E8
:10256000394B5968914200D25A608022374B616AD8
:102570001201354D1A60002905D0606901F04AFC4E
:1025800001300138FDD1E0222F490B681A40802329
:102590005B012B431A60802380229B012B43120195
:1025A0001A608023DB024B60174B6362284B5A682A
:1025B000FF2A02D8802252005A608022254BA1694E
:1025C0001201234D1A60002905D0606901F022FC38
:1025D00001300138FDD1E0221D490B681A408023EB
:1025E0005B012B431A60802380229B012B43120145
:1025F0001A6080235B004B600E4BA361E4E6C0468B
:102600004C100020006CDC021BB700000080004072
:102610003CB0004030B00040002F685900800240BC
:10262000008C864700C0024030800040001BB7008D
:102630003C800040405973075480004054B0004033
:102640006080004060B000406C8000406CB0004092
:102650004880004048B00040014B8000C05870479F
:102660004C100020F0B5C646040000B50C20904682
:102670001F000E0001F0CEFB4101091A8D01691AFD
:10268000C90009188901404601F0C4FB069B3F04BC
:102690001A0323681743002B22DB1A4B1A4DE2184A
:1026A00053425A4180235B019C461203174B6244FC
:1026B0001A60174B1A601100AB689943FBD1C02216
:1026C000231D92011A4321232660A0601360236812
:1026D000002BFCDA0823E760136080BCB846F0BD2D
:1026E0003F2322681340B342D7D1A3681B051B0DBB
:1026F0008342D2D1EE22E368D2021340BB42CCD156
:10270000EBE7C0460040FDBF00C0004000E00040D5
:1027100000F000408023024A9B000343D3627047CD
:1027200000800540AA23064A1B0113602F23054998
:10273000D360054B19605368002BFCDA7047C04624
:102740000040024000B0FA00006002409A4200D20D
:10275000885470477047C046F8B557464E464546C0
:10276000DE46E0B599460A9B07009A460D9B8846CF
:10277000934615000B9E9B0710D10C9B9E420DD2D9
:102780009D1B14000E005D4422004B4601343100B5
:102790002020B847A542F7D1B0460B9E002E27D087
:1027A000444675195346AA1B013E985D21004B46CD
:1027B000B847002EF6D123002C0098460D9B9B07AE
:1027C0000FD55B46E51A0C9BAB420AD946469846A4
:1027D00022004B46310020200135B8470134A8457E
:1027E000F6D82000F0BCBB46B246A946A046F8BDCC
:1027F0002C00E3E7F0B54F464646D646C0B584B058
:1028000098460EAB1B78129F994694460D9C109BE0
:10281000119EBA0725D4002E4BD19C4200D3BFE0B5
:1028200001223A4092461F2C00D9B8E00C9A551E5E
:10283000302201E0202C03D001342A55A342F9D8DC
:102840005246002A0DD0A6420BD9202C44D00C9A17
:10285000551E302201E0202C3ED001342A55B442CE
:10286000F9D1FA064DD57A053FD4002C39D10F9B0A
:10287000102B00D179E00F9B022B00D18AE030238E
:102880000C9A012413704B46002B3FD02D230C9A39
:10289000135501340C9B62460093039743460296FE
:1028A0000194FFF759FF04B0E0BCBA46B146A84610
:1028B000F0BD012215003D40AA463A422FD04A46BB
:1028C000002A02D10C323A4200D0013E9C42BAD2D8
:1028D0001F2CABD9202E27D92024FA06DAD57A0569
:1028E00003D4A3422DD0A6422BD00F9B102B32D065
:1028F000022B20D0202CCDD030220C9B1B191A701B
:102900000134202CC6D04B46002BBFD17B070DD401
:102910003B07BFD520230C9A13550134BAE79C42DC
:102920009FD21F2C00D881E720249AE72B230C9AF2
:1029300013550134AEE7202CACD00C9B1B1901348D
:102940003AE0631E012C92D00F9A102A2AD0022A54
:102950002FD01C00D0E7BB060ED4202C9AD00C9BA5
:102960001A19013478231370C4E7BB060DD47823F9
:102970000C9A01241370BFE7202C00D18AE758225B
:102980000C9B1B191A700134B4E758230C9A0124CC
:102990001370B1E70C9A603301241370ACE7202464
:1029A00000265EE7023CBA06E9D40C9A12191C0014
:1029B000D8E70C9A9246534462221A709AE7C046AE
:1029C00010B5002800D110BD02F0BCFAFBE7C046EC
:1029D000F0B5DE4657464E464546E0B59BB09B46B1
:1029E000249B89469846259B0B900C924046424674
:1029F00019009A4601F0E7FC002800D0D8E0012237
:102A000040465146774B524201F0D8FC002800D096
:102A1000CEE0012240465146734B524201F0B8FCD1
:102A2000002800D0C4E0002200234046514601F0B7
:102A3000AFFC002800D0B9E1424653460A92099300
:102A40008023289ADB001A400E92289A1A4201D15C
:102A5000062326930A9A099B1600134300D0C7E069
:102A6000289B002500261B0500D49BE100230D9325
:102A7000269A0D9B9A4200DC9FE1D01A431E2693B2
:102A80008023289ADB001A430023002728920D9305
:102A9000279B0024BB4200D9DC1B0223289A1A4042
:102AA0000E92289A134203D07B427B415B421C402A
:102AB0000D9B002B07D00A9809992A00330001F0DA
:102AC000FEFB0A900991002200234046514601F086
:102AD0005FFC002805D080200006844609996144E7
:102AE0000991289A414B0B9D13400493269B0A9A07
:102AF0000293099B03940092019349465B46280088
:102B00000C9A00F08BF90400002F62D0289B220061
:102B100098061F23C0179843631C984649465B4696
:102B20006530A8470D9B0025DA179C18DB0F9A46E5
:102B30005440013F01E0202D13D00AAA94461F23E0
:102B4000200063440A2101355E1901F063F9303138
:102B5000317020000A2101F05DF926000400092EE1
:102B6000E9D805230693002304930A3303935346BD
:102B700005970B9F029312AB009342465B46494672
:102B800038000195FFF736FE0E9B0400002B20D085
:102B90000C9BC51A279BAB421BD91E0022005B462B
:102BA000494620200135B8470134AE42F6D810E03E
:102BB000289B42460493279B49460393269B0B98E8
:102BC00002935346009201935B460C9A00F026F95B
:102BD000040020001BB0F0BCBB46B246A946A0468C
:102BE000F0BDC046FFFFEF7FFFFFEFFFFFF7FFFFE6
:102BF000734B099F9C467800400D604401F0F6FB42
:102C0000704A714B01F079FB704A714B01F04EFB39
:102C10003B03704A1B0B1A4304000D0030001100E7
:102C20006D4B002201F039FB6C4A6D4B01F065FBE6
:102C300002000B002000290001F038FB01F0EEFB40
:102C40000D9001F0D3FB674A674B04000D0001F0C3
:102C500054FB0022654B01F029FB01F0DFFB644AC5
:102C60000600644B2000290001F047FB04003000FF
:102C70000D000F9601F0BAFB5F4A604B01F03DFB7F
:102C800002000B002000290001F007FB02000B00EE
:102C900006000F0001F031FB320004000D003B0084
:102CA0003000390001F002FB002210901191544BCA
:102CB0002000290001F003FB0022524B01F0F6FA3C
:102CC00002000B002000290001F0F9FA00224E4B0F
:102CD00001F0ECFA02000B002000290001F0EFFAED
:102CE0000D008021040032003B000020C90501F0E6
:102CF000D4FA02000B002000290001F0D7FA0200EC
:102D00000B001098119901F0DAFA0022314B01F012
:102D1000CDFA3E4B0F9C9C4664440022230501F0F3
:102D2000ECFA05000E0002000B000A98099901F068
:102D30002FFB00280AD00D9B2800013B31000D938A
:102D40000022304B01F0BBFA05000E00C6270D999A
:102D50002B0063318F42BF4128997F420437090518
:102D600000D495E6334300D182E6099C284A21002D
:102D7000284B0A9801F01AFB002808D000222100F5
:102D8000254B0A9801F004FB002800D070E6269B32
:102D9000002B00D17CE60E9B5A1E9341269AD31A33
:102DA000269375E6002304270D9371E643460A93A4
:102DB00080231B065344099342E6002326935FE6D3
:102DC00001FCFFFFFB799F501344D33FB3C8608BD6
:102DD000288AC63F0000F03F0000F83F61436F6360
:102DE000A787D23F71A379094F930A400000E03FC3
:102DF0001655B5BBB16B0240EF39FAFE422EE63FE5
:102E000000002C400000244000001840FF03000098
:102E10002D431CEBE2361A3F80842E41F0B54E461E
:102E2000DE4657464546E0B597B09946209E219F1D
:102E3000229B8346984607910C923B00320030005B
:102E4000390001F0C0FA002800D0A9E101223000C9
:102E50003900CA4B524201F09BFA002800D0E1E051
:102E6000012230003900C64B524201F0A7FA002877
:102E700000D0B7E0002230003900C24B01F09EFACA
:102E8000002800D099E0002230003900BE4B01F04C
:102E90007FFA002800D090E00022002330003900A3
:102EA00001F076FA002800D0B1E000230D93249BB6
:102EB0005B0501D40623984608AB9C4617220024E4
:102EC00030234146624404E0013413550139202C7B
:102ED00001D00929F8D888463000390001F09EFA5F
:102EE0004346DA00A94B05009B181A685B680892F4
:102EF000099301F07BFA02000B003000390001F069
:102F0000CCF9089A099B01F0F8F90A900B9101F0AD
:102F1000A9FA824601F066FA02000B000A980B99A2
:102F200001F0BBF900229A4B0A900B9101F046FA8E
:102F3000002800D1C0E001239C46E244504601F045
:102F400051FA02000B000898099901F027FA0028AD
:102F500002D000239A4601354346002B6AD008ABC5
:102F600017269C4608956644554614E001235B42AB
:102F700043440A2128009A4600F04CFF01343031C6
:102F80003719397028000A2100F044FF092D00D8B4
:102F9000D0E0D0460500202CE8D10EAB98460323A4
:102FA000249A1340012B00D196E02023249A019308
:102FB0000392239A434602921EE0249B58460493B0
:102FC000239B00960197039343460C9A029307991B
:102FD0004B46FFF7FDFC17B0F0BCBB46B246A94616
:102FE000A046F0BD249B5B070ED40322694B2499B5
:102FF0000192039123990291009358464B460C9AF3
:103000000799FFF7A9FBE6E70422634BEFE73B00D4
:1030100032000020002101F040F9012306000F00DA
:103020000D9344E7249B0393239B02930423019372
:103030005A4BE1E7280001F0D9F902000B003000FB
:10304000390001F02AF9524B002206000F0001F06E
:103050009FF90EAB984600280AD1002230003900B3
:103060004B4B01F0ABF9002802D1EB0700D501353D
:10307000202C94D008AA94461723280063440A21E0
:1030800001341E1900F09EFE3031280031700A21F3
:1030900000F098FE051EEBD10323249A1340012B68
:1030A0001BD0202C00D180E70D9B002B35D02D228A
:1030B0004146631C0A5579E700220A980B99344B64
:1030C00001F066F9002800D046E75346002B51D1A5
:1030D00001239C46E2443FE72024239B002BE0D0C1
:1030E0000D9B002B03D1249A0C33134202D0239B57
:1030F000013B2393239BA342D3D908AB9C461722C1
:1031000030236244202C00D14FE72399013413551A
:103110008C42C6D0202CF8D147E7249B5B0724D4EF
:10312000249A2300120700D440E7202241460133AD
:103130000A553BE75746089D202C00D12DE7220079
:1031400030214046002F09D00132B154202A00D14D
:1031500023E7D3431B191B18002BF5D10EAB984660
:103160002E234146541C8B5482E72B224146631C7C
:103170000A551BE7DB0700D4EEE6A9E7FFFFEFFFE8
:10318000FFFFEF7F65CDCD4165CDCDC198B5001076
:103190000000E03F9CB30010A0B30010ACB30010DF
:1031A000249B0393239B029303230193004B23E768
:1031B000A8B30010F0B5DE464E4657464546E0B58A
:1031C0009FB01C00289B91460993C94AC94B8B4666
:1031D00008901A60002900D118E2002320789A464E
:1031E000002800D11AE226001D005C460AE02A00F1
:1031F0006F1C4B46089D2100A8473D0001363078E2
:10320000002870D02528F2D110239B46083B9A460F
:10321000043B9846023B00219C46721C1078160025
:103220000300203BDBB2102B03D8B34F9B00FB58AD
:103230009F460300303B092B32D900230A932A28EA
:1032400068D0002398462E283ED00300683BDBB2AE
:10325000122B1CD8A94A9B00D3589F460123013248
:103260001943DBE7634601321943D7E7434601328E
:103270001943D3E75B4601321943CFE75346013286
:103280001943CBE780235B007078194301360300B4
:10329000253BDBB2532BAAD8994A9B00D3589F46B3
:1032A00000270300B800C01901364000C018337869
:1032B00030381A00303A0700092AF3D90A9018006A
:1032C000002398462E28C0D180237078DB00194354
:1032D0000300303B721C092B00D8A1E12A2800D141
:1032E000B2E11600B1E7A346AA462C00D14503D8A7
:1032F00001235B424B449A464B46524659460020B6
:10330000089DA84720001FB0F0BCBB46B246A946A6
:10331000A046F0BD099B40CB0A96002E03DB5078F7
:103320000993561C8DE72838014370420A9009938F
:103330005078561C85E7782800D1DFE1582800D165
:103340004CE26F2800D14FE3622801D100F030FC3D
:1033500010230A009A430B92692801D000F0A9FCBF
:103360000A230C934B0500D5D0E10B9A8023110062
:103370009B0019408B461A4200D0A1E28023110025
:103380005B0019408A461A4200D0B6E313005B0680
:1033900000D5EDE2130009991B0601D400F076FC7C
:1033A00008C91BB2D8171A18424092B20991934625
:1033B000DA0F1292002B09D1802310220B99DB0027
:1033C0000B4091430B91002B00D0E4E20B9A612358
:1033D000920600D541230EA91F228C46DBB262441F
:1033E0000A3B5F461395A34655460C9CB2460D9387
:1033F00016000AE03033DBB201357355A74200D224
:10340000EDE2202D00D1EAE207002100380000F0B3
:1034100001FDCBB20929EDD90D9A94466344DBB284
:10342000EAE780239B007078194301362FE7707814
:10343000682800D1CDE180230136194327E7707851
:103440006C2800D1BFE180235B00194301361EE7E1
:10345000462800D19BE10722099B0491073393433F
:103460000A9A19000392424602920CC908980092E7
:10347000019309912A004B462100FFF7CFFC01364A
:103480000500BCE62A006F1C4B46089D2100252044
:10349000A84701363D00B2E68B0700D4ADE1099B99
:1034A0002A009A466B1C9846534601CB21009A4647
:1034B000089F4B46C0B2B8470A9B9C466544012B07
:1034C00000D886E2089B4746B04626004C469946FF
:1034D0003A002300013731002020C847AF42F7D11E
:1034E000A1465346340046460993013687E6C04656
:1034F000B5310010CC100020B4B30010F8B30010A8
:1035000044B40010099B04CB9B4643460992002B10
:1035100000D1C6E013789C46002B00D1BDE34346A2
:10352000013B099A0133D0180A9F130001E083423E
:1035300003D05A780133002AF9D1099A0A979B1AC5
:103540000B9380230A00DB001A400C92194204D02E
:103550000B9B434501D943460B9302231A000A40B3
:103560000D920B4200D187E16046002800D168E14E
:103570000C9B002B00D10DE1A844C246099B574685
:103580005B1B9846089BB2462A0026004C4699468B
:1035900009E023003100551CC8474346585D002808
:1035A00000D126E12A009742F3D1A1463D00340024
:1035B00056460D9B002B00D043E15B460136099334
:1035C0001DE6099B1A0008CA9246002B48D021220A
:1035D00011438B460EA884461F21614409950022A1
:1035E0000F27A4460D0002E0202A0CD00B003C005F
:1035F0001C4020003730092C00D807380132A8546D
:1036000019090F2BF0D86446099D32E0DC4B207875
:10361000089300239A46002800D0E4E5002465E6DC
:10362000434606000A9F9800C018013240008019E6
:103630001678030030003038303B0928F3D93000C9
:10364000984616000A9700E6099B023604CB90467E
:10365000D2434046D2171040804609933078F4E5B3
:10366000102208009043113210438346002249057E
:10367000B0D55B4606930823059343460493102375
:1036800003930023029316AB019200932A004B464A
:1036900021000898FFF7AEF853460500013609935C
:1036A000ADE513789C46002B00D1F7E202235B4284
:1036B00037E7202302009A43472A04D180231B01C5
:1036C000194302239843452801D120231943072297
:1036D000099B0491073393430A9A190003924246C7
:1036E00002920CC908980092019309912A004B4656
:1036F0002100FFF76DF90136050080E510230C93DA
:103700000C230A009A430B924B0503D501230B9A15
:103710009A430B92692800D127E6642800D124E659
:103720000B9A802311009B0019408B461A4200D04F
:1037300066E1802311005B0019408A461A4200D0DE
:1037400039E213005B0600D53CE113001B0600D4F0
:10375000A6E2099B04CB1204120C934609935B4624
:10376000002B00D09AE10B9A1033110099430B9172
:10377000520500D492E100239A460B9B06930A9BC4
:103780000593434604930C9B039300230CE12023F1
:10379000194360E6099B0A9A5B1B98464B46914683
:1037A0001F00B2462600089C2A003B003100A047BB
:1037B00043460135585D0028F6D14A463400B946E3
:1037C00056460A92F5E6C0239B00B07819430236AC
:1037D0005DE5C023B0781943023658E50C230A0092
:1037E0009A4314331A43103B0B920C934B058DD420
:1037F00096E7A14634005646DBE60A9A012A00D82D
:1038000053E26B1E9F18089BB04626004C46994613
:103810002A002300013531002020C847BD42F7D1DE
:10382000A14634004646099B3A0001CB2100984648
:103830007D1C4B46089FC0B2B847434601360993EA
:10384000DDE40B9B0A9AA8469A4200D8B5E6944656
:103850006544ED1A089B4746B04626004C469946FB
:103860003A002300013731002020C847AF42F7D18A
:10387000A14634004646A0E60B9A0A99531C914291
:1038800000D814E24B199B1A1F00089BB246260071
:103890004C4699462A002300013531002020C847B4
:1038A000BD42F7D10A9BA14601330B93099B34001B
:1038B0001B7856469C466046002800D058E67CE6B9
:1038C0000722099B07339343013294469C44624686
:1038D0005F6809921A68FB17109311931098119959
:1038E000030053400E930B007B400F9394460E9AB7
:1038F0000F9B121A8B410E920F93FB0F624612938D
:1039000000233A439B463DD00B9A6123920600D593
:1039100041230022DBB20EA90A3B8C4692460D934E
:1039200043461F3262441395159655460E9E0F9FCF
:10393000A24690460C9C14930CE03032D2B243461F
:1039400001355A55BB4500D18AE1202D00D18AE1CD
:1039500006000F00220000233000390000F09CFA1E
:10396000D2B2092AE9D90D9B9C466244D2B2E6E75D
:10397000FF23099904C913401A00099117E5C046AD
:10398000552700100B9A1033110099430B915205E3
:10399000BAD500239A460B9B06930A9B0593434690
:1039A00004930C9B0393129B02935346019316AB13
:1039B0002A00009321004B460898FEF71BFF0136B2
:1039C00005001CE4FF22099B02CB11408B460993A2
:1039D000C5E65346454609930136FFF710FC5646A7
:1039E0005C46AA46139DD6E708230C930B910B99CE
:1039F000642800D084E60B9B5B0500D586E6B4E422
:103A00000722099B07339343013294469C44624644
:103A100009921A685B6810009B4613005A461343CC
:103A200007D10B9A1033110099430B91520500D521
:103A3000A1E60B9A6123920600D541230022DBB256
:103A40000EA90A3B8C4692460D9343461F326244B0
:103A50005F461295A34655460400B24690460C9E1A
:103A600013930DE03032D2B2434601355A5500234C
:103A7000BB4200D100E1202D00D100E104000F0085
:103A8000320000232000390000F006FAD2B2092AE1
:103A9000E8D90D9B9C466244D2B2E5E70B9A6123BC
:103AA000920600D54123DBB20EA90A3B1F228C46A9
:103AB0000D93230062445C461295170055469B46C1
:103AC000B2460C9E08E03033DBB201357B55B44280
:103AD0000ED3202D0CD004003100200000F09AF904
:103AE000CBB20929EFD90D9A94466344DBB2ECE7D7
:103AF00056465C46AA46129D3FE6099B1A0008CA34
:103B0000D91713925A184A409246DA0F1292002B94
:103B100008D1802310220B99DB000B4091430B91BD
:103B2000002B2BD10B9A6123920600D541230EAABC
:103B30001F279446DBB20A3B0D9567445D46099307
:103B4000A3465446B2460C9E08E03033DBB2013542
:103B50007B55B4420ED3202D0CD004003100200040
:103B600000F058F9CBB20929EFD9099A9446634479
:103B7000DBB2ECE756465C46AB460D9D0B9B2A003C
:103B800006930A9B21000593434604930C9B0898D7
:103B90000393129B013602935B46019316AB00938D
:103BA0004B46FEF727FE139B05000993FFF727FB03
:103BB00002230C931AE7099B04CB92461293002A26
:103BC00008D1802310220B99DB000B4091430B910D
:103BD000002B2BD10B9A6123920600D541230EAA0C
:103BE0001F279446DBB20A3B0D9567445D46099357
:103BF000A3465446B2460C9E08E03033DBB2013592
:103C00007B55B4420ED3202D0CD00400310020008F
:103C100000F000F9CBB20929EFD9099A9446634420
:103C2000DBB2ECE756465C46AB460D9D0B9B2A008B
:103C300006930A9B21000593434604930C9B089826
:103C40000393002302935B46019316AB00934B460C
:103C5000FEF7D0FD129B050009930136FFF7CFFA5E
:103C6000B44200D871E6149B54460E960F97AA46AC
:103C70009846159E139D8EE6A64200D8FBE6139B40
:103C800056469846AA465C46129D76E508C9D8175E
:103C90001A1842400991FFF78AFB00230B9350E466
:103CA000099B04CB9346099359E52F00BBE50B9381
:103CB00001E6063B0C939AE60EB4012210B585B0DE
:103CC00007AC08CC01000094524204480394FFF76B
:103CD00071FA05B010BC08BC03B018474D2700109E
:103CE0000FB410B50C4984B006AA08CA0C68039238
:103CF000002C0BD0009201220848524202A9A04792
:103D0000012004B010BC08BC04B01847180001F032
:103D100069F90020F5E7C046CC100020C129001049
:103D200010B5094A0300146884B0002C08D00122A1
:103D300000910648524203A9A047012004B010BDDB
:103D400001F050F90020F9E7CC100020C129001043
:103D500001480421014B1847A0020020813D0010BA
:103D6000142310B50100188804331B88984710BD30
:103D7000162310B50100188802331B88984710BD20
:103D8000F8B54746CE4680B50F1E19D01423994684
:103D9000043304000025012698464B461888434604
:103DA00021681B88984701C4431E98410135404251
:103DB0000640AF42F1D13000C0BCB946B046F8BDB4
:103DC0000126F8E7124A936F9B0815D29066D166D8
:103DD000002905D0FFE7FFE7FFE7516F106F70473D
:103DE00004B580210906C2175140002800D0C843FD
:103DF00006F002FC002104BDF0B5146E556E576F3D
:103E0000166FFFF7E3FF1466556657671667F0BD38
:103E1000000000D0114A936F9B0813D210665166C0
:103E2000002905D0FFE7FFE7FFE7516F106F7047EC
:103E300004B5002801D00020C04306F0DDFB0021BE
:103E400004BDC046F0B5146E556E576F166FFFF780
:103E5000E5FF1466556657671667F0BD000000D091
:103E600094464E4A926F9208624601D230E0C046B4
:103E7000F0B54A4EB56F6D08FCD3346E756E776F32
:103E8000366F00F025F89446444A14665566576725
:103E900016676246F0BDC0469446404A926F92084B
:103EA000624601D258E0C046F0B53C4EB56F6D0891
:103EB000FCD3346E756E776F366F00F04DF8944614
:103EC000364A14665566576716676246F0BDC046A7
:103ED000002B24DB11D000293EDA00B5C943404253
:103EE00000D1013100F038F8C943404200D101311E
:103EF000DB43524200D1013300BD002AEBD1002840
:103F000001D1002905D00020C90FC90701D1C04344
:103F1000410800B506F068FB0022002300BD00B593
:103F200000290ADBDB43524200D1013300F014F8D0
:103F3000C943404200D1013100BDC943404200D1D4
:103F40000131DB43524200D1013300F005F8DB437D
:103F5000524200D1013300BD002923D1002B18D1DA
:103F6000002A0CD0BC460D4F38667A66002100232B
:103F7000FFE7FFE7FFE77A6F386F67467047002873
:103F800001D00748010000B506F02EFB00220023F7
:103F900000BD02000B00002000217047000000D08F
:103FA000FFFFFFFF002B00D0BFE0130C28D1002A39
:103FB000E7D080B4114F39667A66FFE7FFE730B487
:103FC000040C7B6F396F1B0423433B667A66FFE763
:103FD000FFE7FFE7C04684B27B6F3D6F1B042343BE
:103FE0003B667A66FFE7FFE7C04600232C042D0CF2
:103FF0007A6F386F00196941B0BC7047000000D07B
:10400000F0B594460025140E01D112020835140FA4
:1040100001D112010435940F01D192000235D40F61
:1040200001D152000135D40B0134254F7C66254C5B
:104030003C660E0C93B2FFE7FFE7FFE73C6F664379
:10404000360C7703BE467343DF0B5B04C01AB941DD
:10405000130C7343DB18C91ACE086643360CB644FA
:1040600093B273431F0F1B01C01AB941130C734362
:104070001F0B1B05C01AB941860D8F023E436643D4
:10408000360C092D24DB520A7243801A7703460A44
:104090006643360C16235B1BDE40DF40BF196446C7
:1040A0006643821B7046043506330100D940A840A0
:1040B000C01900D30131A24206D20023F0BD000096
:1040C000000000D0FFFFFFFF121B0130F3D3F1E728
:1040D00009277F1BFE406446A2B27243801A00D2B9
:1040E0000139220C7243130C1204821A99410B00FD
:1040F0007046043513370100F940A840801900D3F9
:104100000131002B02D1A2420AD2F0BD013000D30E
:104110000131121BFAD2013BF8D1A24200D2F0BD0C
:10412000013000D30131121BF7E7F0B51C0C00D0B1
:1041300080E00CB400251C0A04D11B02160E334388
:10414000120208351C0B04D11B01160F3343120158
:1041500004359C0B04D19B00960F3343920002352B
:10416000DC0B02D192185B4101351C0097186441A9
:104170000134464F7C66464C3C660E0CFFE7FFE779
:10418000FFE7C0463C6F6643360C7703BE4697B2E6
:104190007743C01B00D20139C01B00D201399FB246
:1041A0007743C91BC91B170C77437E04FF0B801B89
:1041B000B941CE086643360C0C2D33DBB644120BE6
:1041C0001F053A431B0B97B27743C01B00D201393E
:1041D0009FB27743C91B170C77433E043F0C801BEB
:1041E000B941860D8F023E43664329277F1BFE405F
:1041F0000C3D7746AF40BF1930BCA2B2ABB27243A0
:104200007343801A9941220C7243130C1204801AD2
:10421000994102000B000137001BA941F9D2781E19
:104220000021F0BD0C277F1BFE4077467F0BAF407F
:10423000FF19E0E700245D1C07D0144F7D66396646
:10424000FFE7FFE7FFE7FFE73C6F95B29EB26543EC
:104250006643401BB141150C1E0C65436643360492
:104260002F0C3E432D04401BB141994204D2020061
:104270000B0020000021F0BD01D19042F7D3801A3D
:10428000994101349942F2D3F6E70000000000D0D2
:10429000FFFFFFFF48404140484018B41B4B5B689C
:1042A000FC46019308BD04DFCB45001018B4174B42
:1042B0001B68FC46019308BD00DFD54500109446FD
:1042C000134A926F920809D2624618B40F4BDB680A
:1042D000FC46019308BD0CDF8D4800100C4AF0B578
:1042E000146E556E576F166F6246FFF7EEFF084A61
:1042F0001466556657671667F0BD18B4034B9B6884
:10430000FC46019308BD08DF31470010B80D0020BE
:10431000000000D0FFB550404240504059404B4053
:10432000594000E0FFB5154F4C00640D03D0BC426E
:1043300004D10C0314D80020090D09055C00640D9C
:1043400003D0BC4204D11C030AD800221B0D1B055C
:1043500001264B4009D44B4003D58B4200D1824209
:10436000FFBD9942FCD19042FFBD0B43DB180343D4
:104370001343F5D0C9434918FFBD0000FF070000F3
:1043800000B5FFF7CFFF01D0002000BD012000BD28
:1043900000B5FFF7C7FF804100BDC04600B5FFF77D
:1043A000C1FF01D9002000BD012000BD00B5FFF70D
:1043B000B1FF01D9002000BD012000BD00B5FFF70D
:1043C000A9FF804100BD012040054A00121804D811
:1043D0005A00121801D800207047012070470020B1
:1043E000704700000021002805D17047C1174840E0
:1043F000401AFAD0C90713B5064B1B6898470CBC86
:10440000441CA2401005120B0349091B090519435E
:10441000114310BDBC1200201F04000010B54C0059
:10442000620D8023D218DB00D21A5B057E2A10DDD4
:104430009E3A13DACC170903490819435242D14076
:10444000640001341532202A05DAD0400843604365
:1044500010BD002010BD0846604310BDC80FC01835
:10446000013810BD18B4044B5B6AFC46019308BDCB
:1044700024DF3D4A00100000B80D002018B4044BA2
:10448000DB6DFC46019308BD5CDF494B001000006A
:10449000B80D0020C94211D300B5490049080022D7
:1044A00000F018F8002904D4002240428A41114645
:1044B00000BD80210906002000BD000018B4044B97
:1044C000DB6EFC46019308BD6CDF4B4A0010000018
:1044D000B80D002018B4044B9B6FFC46019308BD37
:1044E00078DF674A00100000B80D002018B4044BB4
:1044F000DB6FFC46019308BD7CDFD54A001000004D
:10450000B80D0020132370B51D78012D15D010DDD6
:104510001C48FFF72DFC1C4C01008022200000F0FD
:104520002BFC022D06D01948FFF71AFC184B186017
:1045300070BD154C174BA364F5E7164B124C236066
:104540006360A360E36023616361A361E36123624D
:104550006362A362E36223636363A363E36323642D
:104560006364A364E36423656365A365E36523660D
:104570006366A366E36623676367A367E367A36471
:10458000D1E7C04653440000B80D00204C33000072
:10459000BC1200209945001007B5604601880A0A40
:1045A0000230DF2AFAD1C9B2820804D302884088D7
:1045B0000004104300E00068014A5050039007BD1A
:1045C000B80D00200FB403BC0CBCF0B50124E40707
:1045D000634000E0F0B50C0DCF0F661E3605891B59
:1045E000640503D3C943404200D30131640D03D0B5
:1045F000661CF60A07D0E41B00207F00791C89079F
:104600008912803C24031D0DDF0F6E1E36059B1B97
:104610006D0503D3DB43524200D301336D0D03D04C
:104620006E1CF60A07D0ED1B00227F007B1C9B0747
:104630009B12803D2D032F1B661B58D4A446202EB1
:1046400046DA20371400BC401D00BD40F240334123
:104650002A4380185941CB0F05D0C943C0430022DB
:1046600064425041514162464D0D28D10D0D07D194
:1046700000281FD0241940414941013A0D0DF9D0BD
:10468000640006D3013000D30131002C01D1400871
:104690004000013A0BD4941CE40A04D112051144E1
:1046A000DB071944F0BDD907204B194300E0D907B7
:1046B0000020F0BD0029DDD1002CDBD1F0BD01329E
:1046C000C6074008CD0728434908002EE1D0D9E7A6
:1046D0003C2E29DA203E40371400BC4000D0012493
:1046E000F24014431A00BB401C43D317ACE7AC465E
:1046F000202F08DA20360400B4400D00B540F84001
:1047000039412843A5E73C2F0CDA203F403604000E
:10471000B44000D00124F84004430800B1400C43E9
:10472000C117EAE710001900002494E70000F07FA9
:10473000F0B50C0D661E3605891BE60A6405640D8E
:1047400002D0651CED0A04D0002001210905803C3F
:104750002403A4461C0D671E3F05DB1BE70A640506
:10476000640D02D0651CED0A04D0002201231B0554
:10477000803C24037740644497B484B296B2744377
:10478000070C7E43150C6F4380B26843361802D382
:10479000012000043F183004350C00197D41844687
:1047A00088B29AB250430C0C62431F0C7C438EB209
:1047B0007E43921902D301263604A4191604170C5D
:1047C0003618674101BC81B29AB25143040C62436E
:1047D0001B0C5C4380B25843121802D30120000422
:1047E00024181004130C401863412D185E4100205A
:1047F000474106BC88B293B258430C0C6343120C79
:10480000544389B251435B1802D30121090464184F
:1048100019041A0C091862416D18564100204741CD
:1048200018BCF902720D1143F0026A0D1043ED023B
:104830000A0D03D16D1940414941013B124E9B1BAA
:104840007600B3420ED26D0007D3013000267141CD
:104850006646354301D1400840001B05C918E407EE
:104860002144F0BD0BDA013306D1013004D101310E
:104870004F0D01D04908F2E7E1070020F0BD0136F5
:1048800031050020EBE70000FF030000F0B51C0D30
:10489000671E3F05DB1BE70A6405640D02D0661C3A
:1048A000F60A04D0002201231B05803C2403D025F6
:1048B0002D060026F6432E661E096E66CE0FF619EB
:1048C000B44649004F0D02D07E1CF60A03D00020EA
:1048D0000021403F3F033E1BB600B444013F7F052B
:1048E000C91B49082E6F013676089C02950D254399
:1048F0007543ED137543AD1301356D10F603761B4B
:104900000CB4CC02450D2C43A2B2B3B25A43270CCF
:104910007B43350C6F43A4B26C431B1902D30124B3
:1049200024043F191C041D0CA4187D4124196D4159
:10493000009A91B2ACB26143170C7C432B0C5F43DD
:1049400092B25A43A41802D301221204BF182204BF
:10495000230C52187B41019C6C431B19520ED90148
:104960000A434401A01A81B2B2B2514303145A431C
:10497000360C734387B27743D617D21900277E418E
:1049800036049B191704160C7F185E417316ED1838
:10499000F301002680337541A90F06D16400690A2E
:1049A000E8055B0A184309D22FE0042294448033BF
:1049B0007541A90AA8059B0A184326D340414941DD
:1049C0002404009A019B0D005543641B4343E41AE1
:1049D00095B286B27543170C7E43030C5F4392B2C7
:1049E0005A43B61802D301221204BF183204330C02
:1049F00052197B4152429C41002C02D400220130CA
:104A000051414008CA071043490802B06246D7071F
:104A10009210084BD218084B9A4203D212058918FB
:104A2000C919F0BD0020002A01DC3900F0BD0133B6
:104A30001905F5E7FD030000FE070000002200B5A0
:104A4000203200F010F8080000BD002200B500F090
:104A50000CF8CA179A4200D100BDD8430121C907FA
:104A6000414000BD00220B150AD410B5944600F059
:104A7000A7F81414013400DA0021CB17144C204796
:104A80000020002170476244343A0CD40C2A07DA23
:104A900004009140904052422032D440214310BD46
:104AA000D843D94310BD203207D40C46944052421B
:104AB00020321141D040204310BD0800C9172032D8
:104AC00003D452422032104110BD1800190010BD0D
:104AD000874A00104A00520D144BD21A13DDFF2AE8
:104AE0001EDAD205CB0FDB071A43C300400F0903C0
:104AF000490A084310435B0001D301D001307047DD
:104B00004308FBD2704702D0C80FC00770470A03A2
:104B100012130132F8D1420F072AF5D1012200E029
:104B2000FF22C80F00028018C005704780030000F4
:104B300000210A00002104E000210A00C11704E05E
:104B40000022002306E0C0460022CB1758405940FF
:104B5000C01A994130B5184CA21A002903D101009E
:104B600010D00020203A4C1512D104D2013A00187E
:104B700049414C0DFAD3114CA24204D212058918B6
:104B8000DB07C91830BDD243520D00200021F5E7E4
:104B900003D4013A00184941FBD50B324405C00A41
:104BA0004D052843C90A640003D0002460416141D7
:104BB000E1E7E0D34408F8E732040000FE07000014
:104BC0000A0DCC0F531E1B05C91A520503D3C94346
:104BD000404200D30131520D03D0531CDB0A07D0F1
:104BE000121B00206400611C89078912803A12039D
:104BF000014BD21A70470000FF03000051434343AA
:104C0000C9188C46110C83B24B4310B4040C614399
:104C100092B280B2504362431C041B0C001910BCBA
:104C200059411304120CC0185141614470470000EF
:104C3000132310B512481C78FFF79AF80100012CD5
:104C40000AD003DD80220F4800F096F80E48FFF7E7
:104C500087F80E4B186010BD0A4C5422200000F05B
:104C60008BF80B4B6365A365E36523666366A366F8
:104C7000E36623676367A367E3672362E361E5E7AE
:104C800053460000B80E00204C330000BC12002038
:104C9000954C001007B5604601880A0A0230DF2AE9
:104CA000FAD1C9B2820804D30288408800041043B4
:104CB00000E00068014A5050039007BDB80E002084
:104CC00070B504000A4E300005F0A6FC200000F08C
:104CD0001DFC0500300005F07FFC002D05D0054BC4
:104CE0002C199C4201D8280070BD0348FDF738FB01
:104CF000800C002000000420E8B5001070B505000D
:104D00000C000B4E300005F087FC2800210000F05D
:104D1000E3FE0500300005F05FFC002D05D0054BDB
:104D20002C199C4201D8280070BD0348FDF718FBE0
:104D3000800C002000000420E8B5001070B50400CD
:104D4000054D280005F068FC200000F0E9FB280074
:104D500005F042FC70BDC046800C002001480421D3
:104D6000014B1847B0020020813D0010014B1B6829
:104D700018470000B0020020014B5B681847000094
:104D8000B0020020030010B5080011001B6898470E
:104D900010BDC046F0B546464F46D646C0B5437C2A
:104DA00080460E001700002B46D0002A3FDD4B1E28
:104DB0009946244B0125002400209A460DE04B46DD
:104DC0001B5D0D3B5A425341325DDBB20A2A0BD0C8
:104DD0002B00013401359F421ADD002CEFD14346F0
:104DE000325D1B7C0A2AF3D1002BF1D1A04204DAF8
:104DF0004346211A1B6830189847434650461B68A3
:104E000002219847013428002B0001359F42E4DC41
:104E1000874204DD4346391A1B6830189847F61953
:104E2000013E33780D3B5A42534142461374E0BC75
:104E3000BA46B146A846F0BD036811003000984755
:104E4000F5E7C0465CB60010F0B557464E464546FD
:104E5000DE461C00D023E0B51B061F68344B83B030
:104E600006000D00180001A991469A4605F0CCFBFA
:104E70008046002808D1019B7FB29F4204D0504653
:104E800005F0CAFB012398466B1C03D1300001F0EA
:104E900015F80500002C27D1264F274B1C68002C45
:104EA00018D04B46002B21D1244B994602E0E468F0
:104EB000002C0FD02368002BF9D04B461B68002B29
:104EC00001D0A342F3D120002A003100B847E468A2
:104ED000002CEFD14346002B25D103B0F0BCBB46DC
:104EE000B246A946A046F0BD154FD6E7134B9946EA
:104EF0000A239B4602E0E468002CEBD02368002BD9
:104F0000F9D04B461B68002B01D0A342F3D12A00F5
:104F100031002000B8475A466B4620001A7101A99B
:104F20000122B847E7E7504605F056FBD5E7C046F3
:104F3000880C0020954D0010B4100020BC100020FB
:104F4000854D0010F0B5CE46474680B583B06B4620
:104F5000DE1CD02330701B061C681F4B804601A945
:104F60001800994605F050FB071E20D01B4B1C680B
:104F7000002C28D01A4D02E0E468002C0FD02368E2
:104F8000002BF9D02B68002B01D0A342F4D12000D4
:104F900001223100FFF7FEFEE468002CEFD1002F64
:104FA00011D1404603B0C0BCB946B046F0BD019B2C
:104FB00064B29C420BD0484605F02EFB074B0127FC
:104FC0001C68002CD6D1484605F006FBE9E7034BE8
:104FD0001C68002CCED1E4E7880C0020B41000201F
:104FE000BC10002070B5040000F068FF0023010031
:104FF000050001222000FFF727FF084B1C68002C4A
:1050000006D06368002B05D09847E468002CF8D1DF
:10501000280070BDE468002CF3D1F9E7B41000203B
:105020000A4A1368002B05D10CE01A00DB680C3229
:10503000002B07D09842F8D1002902D1C368136031
:10504000C16070470029FCD01060FAE7B41000205E
:1050500010B500F043F810BDF0B50D1E15DD0E4B78
:105060000D271A680D4B4519D31859424B410C496D
:105070005B005E5E20210478A64207D09369194246
:10508000FCD101301460A842F5D1F0BD93691942FA
:10509000FCD11760F2E7C046E81200200080FCBF98
:1050A000E412002030B504000D1E12DD0020102196
:1050B000094B013C1A689369194208D10130936980
:1050C0001942FCD1136823548542F4D130BD002825
:1050D000FCD103204042F9E7E8120020E12110B59D
:1050E0000B4B0C481B780C4B49021B780B4B186080
:1050F000FDF718F802210020FCF7F6F80221012044
:10510000FCF7F2F801210648FFF78AFF10BDC04600
:1051100014C000100040034018C00010E812002026
:10512000C002002003BDC04610B50400FCF7D2FA4F
:10513000A04710BD8022054B520205491A600B683A
:105140001342FCD0034B1A607047C0460420014054
:105150000400014004300140F0B5040087B00F2086
:105160000E001700FCF744F9002105000F20FCF7A2
:105170002DF9002300220092019301230293D023F2
:1051800004960594002600240121022003971B06A3
:10519000002C14D01A6D1042FCD05C6540BF1A6D13
:1051A000114203D120BF1A6D1142FBD09A6DA24269
:1051B0000AD000266C46B200A458E9E79A6D1A6D31
:1051C0001142FBD140BFE5E70136052EF2D9290097
:1051D0000F20FCF7FBF807B0F0BDC0460B4B0C4AA4
:1051E00010B5934201D201235B421900094A98503D
:1051F00004329B50084A094B0948CA50094B9A6827
:10520000044B9C466144FFF7A7FF10BD0008042033
:1052100000000420F407000029510010FC070000E2
:105220002551001000ED00E010B5114C114B226823
:105230009A4210D1104B62689A420CD10F4BA2686F
:105240009A4208D100230E482360FEF789FD002111
:10525000030000209847074B00212360064B0948B4
:105260006360064BA360FCF771FC0023236010BD54
:10527000A80C0020DE8116F0299B72BD7ABE59D39E
:1052800055420000400D0300F0B5D6464F46464655
:105290008846C0B505240600FCF73EF843461F7952
:1052A0001C57284B8146F01843425841264B9A46DA
:1052B00083009C4653466246985801222023BA40F8
:1052C000DB1B013A002C32DB9C422DDCA240150096
:1052D000104229D1002F1AD043465A781978120269
:1052E000114342469B78D2781B040B4312061A43A3
:1052F0009046002241465300C95A4B0B00D1091970
:10530000131912339B00013299519742F2D8534638
:10531000624605439D504846FCF70AF82000E0BC71
:10532000BA46B146A846F0BD0848FDF719F8002B6B
:1053300002DAF9E7013BF7D315009D401C00054256
:10534000F8D1C7E70000D0AF0C100020C4B60010A1
:10535000F0B54E464546DE4657468A464900E0B51A
:105360000D0080465544ED0045448946290009ACAE
:105370002678DC31741EA6410868744284461448BD
:105380001F26834626405E44052B0CD9A0201F27EC
:105390004005D835540104430532053B0C603A40C2
:1053A0002E60052BF6D849465144C90041445201AC
:1053B0009B0613430A000800DC3213606346D830B2
:1053C00006601360F0BCBB46B246A946A046F0BDDD
:1053D00080E00000F0B501258D400468AC434D002D
:1053E00004606C18E40004192600C836002B2AD08B
:1053F0001F68DC3437605F6877609F68DB68B76080
:1054000023606D18EB001D008024D0354519640120
:105410002C4380252D0625602560114C0D1D8C40E8
:10542000846001242700AF403D0008318C401F21DB
:1054300006680A403543056005682C430460C018BF
:10544000D8300260F0BD80277F023760F8277F02E6
:105450007760C027DC343F03B7602360D1E7C046E4
:105460000101010170B50B0C0024150C002B28D193
:10547000002D37D18BB291B2594300F05BF8051E75
:1054800019D00300083B5A6803239A43043A242A9C
:1054900013D80300132A0AD90460446008331B2A76
:1054A00005D98460C460242A25D00300103300226B
:1054B0001A605A609A60280070BD0021FFF756FC00
:1054C000F9E7002D11D1151C89B292B24A43ADB251
:1054D0009BB26B43110C5B18190C06D1190492B2E4
:1054E0001143CAE72B1C0D1CEEE700F009F80C2352
:1054F00000250360DFE70300046118334461D6E749
:10550000014B18687047C046D402002010B5034B09
:105510000100186800F00EF810BDC046D40200204B
:1055200010B5034B0100186802F014F910BDC04615
:10553000D4020020F0B54E464546DE465746E0B55B
:105540000D000B35060083B0162D22D8102900D986
:10555000B2E000F0B1FA102518230220CC4FFB185E
:105560001A005C68083A944200D1B5E003236268EF
:105570009A431300E268A168CA6091600122E318AF
:10558000596830000A435A6000F09EFA2000083043
:1055900095E007239D4300D58EE0A94200D98BE01A
:1055A00000F08AFAFC235B009D4200D2A7E1680A62
:1055B00000D18BE0042800D97AE138239846A80965
:1055C00080443930C100B24F79184C680839A14283
:1055D0000ED003239C4604E0002ACBDAE468A14203
:1055E00006D06246636893435A1B0F2AF4DD404697
:1055F0003A003C690832944200D178E003236168A4
:10560000994389460B00491B0F2900DD7BE17A6134
:105610003A610029B2DA80229200914500D30FE16D
:105620005909DA0801238B40D2007968D2190B435B
:1056300091687B60E260A1609460CC60012182107F
:105640009140994259D80B4205D103229043490019
:1056500004300B42FBD003239846C3009946B9445B
:10566000CC4682466346DC68A44507D12CE1002A7B
:1056700000DB35E1E468A44500D125E142466368DA
:1056800093435A1B0F2AF2DD01208046611905431E
:105690006560A068E5680837C560A86040461043AB
:1056A000F960B9604860CF6030008F60E25000F070
:1056B0000BFA2000083002E00C230020336003B016
:1056C000F0BCBB46B246A946A046F0BD80213F23B0
:1056D00040209846890076E7DC680230A34200D07B
:1056E00044E73A003C690832944200D086E7012141
:1056F0007B68821091409942A5D90323BC686268F7
:105700009A439146954203D8531B0F2B00DD89E045
:1057100023004B445F4A01935F4B93461B6812681A
:10572000EB18013200D13DE15C4A944663441B0B07
:105730001B0300933000009900F084FB03008046B7
:10574000013300D1FAE0019B834200D9F4E0544BCD
:1057500000981A009A461268030094465146634422
:105760000B6001991A00414500D151E15B461B686D
:10577000013300D156E1434601995B1A9A1853460A
:105780001A600723424641461A400192194200D14D
:1057900012E108239846881A424B009980444144FC
:1057A0009B1A5B1A1B051B0D0091300019009B46CC
:1057B00000F048FB431C00D150E14346C01A0300EF
:1057C0005B440093534652461B6801215B441360BF
:1057D00042464046BA60009A0A434260BC4200D149
:1057E00024E14A460F2A00D822E107200C3A8243DE
:1057F00060680140052011436160A118486088601D
:105800000F2A00D935E142464446526826490868C5
:10581000984200D20B6025490868984200D38FE077
:105820000B608DE00122290013431143651961606B
:105830003000BD606B6000F047F9200008303EE7A3
:105840005A0A042A72D9142A00D9C5E011005C3220
:105850005B31D20008235B429C46BA1894446346ED
:105860009A6803239846944500D19EE043465168C8
:105870009943494502D992689445F7D1D3689C462B
:105880007B686146A260E1608C60D460D6E6C04669
:1058900000070020080B0020081000200F10000057
:1058A000D80F002008100000001000200410002075
:1058B000142852D9542800D996E06E239846280B14
:1058C00080446F30C1007EE608239B46073BDC44E2
:1058D0009B46DA4443465246134200D0C2E64CE0AF
:1058E0000122E318596830000A435A60E368A2684D
:1058F000D3609A6000F0E8F820000830DFE62B0063
:10590000E80808332AE6012360191D4365607861C1
:105910003861C26082601A004B460A434260300020
:10592000E15000F0D1F820000830C8E69A091100D3
:1059300039323831D2008DE7BC4260D0BC68626831
:1059400003239A43531B954202D80F2B00DD69E7CE
:10595000300000F0B9F80020B1E65B23984680449F
:105960005C30C1002FE608235B429C46E1444B4675
:105970009B6801384B4500D098E043460342F2D182
:105980007B688B437B604900994200D9B5E60029CA
:1059900004D1B2E6042294464900E2440B42F9D015
:1059A00050465AE610330093C4E68910023B8B4000
:1059B00079680B437B6064E7009B300043445B42A3
:1059C0001B051B0D19009B4600F03CFA431C00D040
:1059D000F3E600239B46F5E6542A2BD81A0B110058
:1059E0006F326E31D20035E7AA235B0098422BD884
:1059F000DD3B9846E80B80447830C100E3E52C4B52
:105A0000009A9A461B689C46534662441A60ADE66B
:105A1000090500D0AAE60200BC684A4401310A43E5
:105A20006260F3E65B4642461A60AAE64446EDE64B
:105A300041608DE7AA2149008A4224D8DA0B11007F
:105A400078327731D20005E71A4B984224D87C236C
:105A50009846A80C80447D30C100B4E5009A019BB3
:105A600094464246083B63449B1A009300239B469E
:105A7000A8E621003000083101F06CFE5346BC68F6
:105A80001B686268C2E60B498A420BD89A0C110067
:105A90007D327C31D200DDE6FE217E237F209846D8
:105AA000890090E5FE227E219200D3E67B686AE7BA
:105AB000D80F00205405000010B5024801F04AFF3D
:105AC00010BDC046D40F002010B5024801F044FFBD
:105AD00010BDC046D40F0020030010B50A000349D2
