:020000041000EA
:1000000000B5324B212058609868022188439860DF
:10001000D860186158612E4B002199600221596106
:100020000121F02299502B49196001219960352056
:1000300000F044F80222904214D00621196600F024
:1000400034F8196E01211966002018661A6600F04E
:100050002CF8196E196E196E052000F02FF8012189
:100060000842F9D1002199601B49196000215960AB
:100070001A491B48016001219960EB211966A021F2
:10008000196600F012F800219960164914480160C1
:100090000121996001BC002800D000471248134993
:1000A000086003C880F30888084703B5996A0420EC
:1000B0000142FBD001200142F8D103BD02B5186610
:1000C0001866FFF7F2FF186E186E02BD00000240BE
:1000D000000000180000070000035F00212200005C
:1000E000F4000018222000A00001001008ED00E03C
:1000F00000000000000000000000000074B24E7A12
:1001000000200420F7010010C3010010C5010010F9
:10011000C1010010C1010010C1010010C101001097
:10012000C1010010C1010010C1010010C701001081
:10013000C1010010C1010010C9010010CB01001065
:10014000CD010010CD010010CD010010CD01001037
:10015000CD010010CD010010CD010010CD01001027
:10016000CD010010CD010010CD010010CD01001017
:10017000CD010010CD010010CD010010CD01001007
:10018000CD010010CD010010CD010010CD010010F7
:10019000CD010010CD010010CD010010CD010010E7
:1001A000CD010010CD010010CD010010CD010010D7
:1001B000CD010010CD010010CD010010CD010010C7
:1001C00000BE00BE00BE00BE00BE00BE00F04BF888
:1001D000103800BEF2EB8871E86500101066001060
:1001E0003402001090A31AE700202149086006C8D5
:1001F00081F3088810471F48006800282FD10DA4FC
:100200000ECC002902D000F012F8F9E71A491B4A77
:10021000002000E001C19142FCD1194988471949E9
:1002200088471949884700BEFDE701C901C29A42C3
:10023000FBD3704710660010C00000205C02002055
:10024000B86700100000042000000420B867001008
:1002500000100420001004200000000070470B482C
:1002600003F09CFD0047EFF30580C0B2704700002B
:1002700008ED00E0000000D06802002094A30220F6
:10028000E922001049090010D92300105756000038
:1002900006005250ABB36053286500100600525060
:1002A000861C030238650010060052505422A29D9D
:1002B0003C65001005005250DE65F468B867001018
:1002C000F8B5C04610B5064C2378002B07D1054B76
:1002D000002B02D0044800E000BF0123237010BDB2
:1002E0006805002000000000C05C0010044B10B541
:1002F000002B03D00349044800E000BF10BDC046F6
:10030000000000006C050020C05C001002680123A2
:1003100010B5002A1BD0134A0260002B01D1012026
:1003200010BD114B11499B6A0C68A342F7D3D0232F
:100330001B065C68A40111D48024A4045C610C4CED
:10034000094BA4469B6A63440B600023E4E7D02377
:100350001B065C680549034AA401EDD58024A4046A
:100360009C61ECE718030010004005407C3B002036
:1003700020A10700F0B5DE4657464E464546E0B59B
:10038000036893B0002B00D02BE2D94805F0F4F9B4
:10039000D84BA0211B68C90502930123029A0720AC
:1003A00093408622D2008B500822D34B1A6000F073
:1003B0004FFF0021412000F037FF012000F03EFFF9
:1003C000CE4800F04FFF0A21412000F02DFFCC481D
:1003D00000F048FF1421412000F026FFC94800F03A
:1003E00041FF1E21412000F01FFFC74800F03AFFE7
:1003F0000021FA2000F018FF022000F01FFFC34880
:1004000000F030FFBB4B80221B685204990102931D
:10041000BF4B9C4661440B681C0014401342FAD148
:100420008027BC4D7F01BC4B28781E19BB4B002197
:100430001B59C0030293029ADB1704F06FFF4904B3
:10044000C00B0843043430600135BC42EBD12200BC
:100450000021B34805F054F88023B24ADB00136052
:1004600000230121B04AB14F1360B14AB14E13606D
:10047000B14BA0221B68D205994002938623DB0072
:10048000D150A54B0122181DA54B191DAB4B994608
:10049000AB4B9846AB4B9C46AB4B9B464C464546BC
:1004A0005308234054002C40654623431CB2A4004B
:1004B0009B082B403C4023431CB2A44D1B09240144
:1004C00033402C4023435BBA9BB29B09934210D923
:1004D000914D9B00AA469A4455462D6804680560D4
:1004E00055462C608E4D0C68AA4653441D680D601D
:1004F0001C60013292B2043004315A45CED1092336
:100500000F93083B0993099A13009B005B429B469B
:1005100000235F460E925200099292000C920D93B6
:10052000029302990F9A0B0093405A1C8848FF329D
:1005300092009B008258C35850105B42D21706921B
:100540005A10DB1708930E9B05909C46724B614432
:100550008D005E19724B07929C4665443368059A7C
:100560009846DB179A462B6840469946DB179B4610
:100570005146069B04F0D2FE4904C40B079A484634
:10058000089B0C43594604F0C9FE4904C00B0843BC
:10059000241A059A4846069B594604F0BFFE4904B2
:1005A000C00B08438146079A089B4046514604F019
:1005B000B5FEF35949045A10C00B0843111BA41887
:1005C000099AEB5994465B10484431600C9A191A09
:1005D000C018029B2960634494468022F451E8517C
:1005E000029366446544D2009342B7DB0D9B0E9A9A
:1005F00001339BB20D930293934292DB0F9B5A1EE1
:100600000F9280D2534B464F1B68434E9A46DB17DE
:100610009B46002399469846029305933368DA1760
:100620009C183B685440DA179D18554020003D60E7
:10063000AC4200DD280052465B46C11704F06EFE56
:100640004904C00B0843AC4200DA2C002418346083
:10065000A14507DA4346042B00DCBCE002930123EA
:10066000A146059301239C468023E04404360437C9
:100670009B009845D2D1059B002B00D1A9E04A46AA
:10068000294B1A60029B2A4A1800136003F0D0FE1F
:100690000022314B03F05BFE03F01EFF2F4BB02214
:1006A000186000231421FA2000931E3300F0BEFBD3
:1006B0002A4B4024186804F06DFE2949020029489D
:1006C00003F038FB1421FA2000F0AEFD022000F008
:1006D000B5FD244800F0C6FD8022120194460E4B61
:1006E000214DE027634498462600A946FF373DE0A8
:1006F000C05C00108001002000E00440D45C0010C9
:10070000E85C0010F45C0010045D0010185D00103F
:1007100010000050643700200C260020889302202F
:10072000081600203436002044360020CCCCFFFFD1
:10073000483600200F0F00007801002055550000BA
:10074000AAAAFFFF33330000FF030000F0F0FFFF11
:100750008405002084010020008823404C360020BE
:10076000285D00100C3600202026002033B29A4667
:10077000AE22002332215046FF3200F009FB4A46E8
:1007800008CA01361C00DB171D009146DB00620F12
:1007900013430B93E3000A930A9A0B9B12196B41C4
:1007A0005904D00B53040843029303900299039A0F
:1007B0005304CA0B1A43D1130AB2791A07235046BD
:1007C00009B200F0E5FAB6B2C845CFD11094119540
:1007D00018E6002062E701239C460436E044043713
:1007E0001CE79F46F0B5C646154B00B51B68002BAD
:1007F00025D1144B1B68002B1ED100229046424687
:10080000114F124D3B68124E2A60002B13DD00225F
:10081000340053009B189B00F31820009B689847F6
:100820002B680C345A1C3B682A609A42F1DB424622
:100830002A60002BEBDCFEE780BCB846F0BD9F468B
:1008400060360020683600206C36002038360020E4
:1008500074360020F0B5C646154B00B51B68002B5A
:1008600025D1144B1B68002B1ED100229046424616
:10087000114F124D3B68124E2A60002B13DD0022EF
:10088000340053009B189B00F31820009B68984786
:100890002B680C345A1C3B682A609A42F1DB4246B2
:1008A0002A60002BEBDCFEE780BCB846F0BD9F461B
:1008B0006436002068360020703600203C36002068
:1008C000EC360020D0231B061B6870B5012B16D018
:1008D00016490B68092B05DD0022154B1A60FFF73E
:1008E00081FF70BD5A001348D2189200124D84182F
:1008F0006360A5600024013384500B60ECE70F496E
:100900000B68092B0BDC5A000D48D21892000A4DD7
:1009100084186360A5600024013384500B600022BA
:10092000084B1A60FFF796FFDBE7C0466C360020E5
:1009300060360020743600200D0300107036002051
:10094000EC36002064360020F0B5DE4657464E46B1
:100950004546E0B583B004F045FF00F019F91920D1
:1009600000F02EFDD02380221B0692045A621F2124
:100970009A611A2000F0E0FC002200211A2000F009
:10098000F3FC00211A2000F007FD05F023F9E02117
:100990005F4AC90113680B405E490B605E4B1968E2
:1009A0005E4B4B405E490B405E490B6096235B03F8
:1009B000136100235C4A994608C292465B4A08C20A
:1009C000013398460192404604F0C2FC04F01AFD3F
:1009D000574A584B03F0BBFC0022574B03F0B7FCBF
:1009E00004000D0003F0A4FD06000F002000290004
:1009F00003F088FDD3460022504B04000D00300068
:100A0000390003F0A4FCCB4403F02AFD5B4622002E
:100A100018604B492B00002003F069FC0022494B71
:100A200003F095FC454B002203F091FC03F018FD08
:100A300001239C460333E0449C468023019EDB0057
:100A40004E443060E1449845BDD1A0213E4B3F4823
:100A50001A683F4CD50228409201C9053D4B04431A
:100A600050183D491B6801603C4941604146816026
:100A700004613B48D90201403A4829430143A02080
:100A8000C00584469B013848634418603748844653
:100A900062445A60012236489A60196104F056FF98
:100AA000D0231B061B68012B1CD0324A1368092B6C
:100AB0000CDD0022304B1A60FFF794FE002003B0DB
:100AC000F0BCBB46B246A946A046F0BD0C21594336
:100AD0002A482B4D44186360A560002401330C5054
:100AE0001360E6E7274A1368092B0ADC0C215943F7
:100AF0002548234D44186360A560002401330C5041
:100B000013600022214B1A60FFF7A4FED6E7C0460F
:100B100000C0044000D0044008C004400B000001A5
:100B20000F00000F08D004408405002088930220A5
:100B30006F1283C0CA2119400000503F0000E040FE
:100B40000000F03F0000E03F80010020FD7F00FF3B
:100B500021001200780100200CC0044064370020FE
:100B6000FD871FFF09801F007C010020040000504A
:100B7000C50800106C360020603600207436002056
:100B80007503001070360020EC360020643600201B
:100B9000F0B5D6464F464646C0B56D498AB06D4859
:100BA00004F02AFF6C4906006A4804F025FF6B49EF
:100BB0000500684804F020FF002380229946059331
:100BC000F82352025B0202920393C02304001B032A
:100BD000102202A906A89846049304F097FC31005D
:100BE000731C08310A03DB01134306A9102202A873
:100BF000079304F08BFC5A4B01270593A023062191
:100C0000DB0210209A46029300F096FB012310228B
:100C100000215048009704F053FF320000214D4856
:100C200002AB04F08FFF29006B1C0D310A03DB01BE
:100C300013434C4A062113408022D20513430793E5
:100C400043460893484B112009935346069300F0FE
:100C500073FB0123112201213E48009704F030FF6D
:100C60002A0001213B4806AB04F06CFF4B46802272
:100C70000593F82352025B0202920393434610222B
:100C800002A906A8049304F041FC2200A31C083228
:100C90001203DB01134306A9102202A8079304F0F4
:100CA00035FC324B06211220059300F045FB06214E
:100CB000132000F041FB0621142000F03DFB03232C
:100CC000122202212348009704F0FAFE220002219A
:100CD00002AB204804F036FFA023254ADB051A604A
:100CE000244A25495A60962292029A60234A1A6140
:100CF000234A116080215360224B97601361154A8B
:100D0000490253680B42FCD180211F4B89021361B9
:100D1000104A53680B42FCD1E0238021FF3353611A
:100D20000C4AC90253680B42FCD14023FF33936144
:100D30001168164B0B431360A02286230121D205B4
:100D4000DB00D1500AB0E0BCBA46B146A846F0BDBF
:100D50002862001000002050606200104462001001
:100D600000020004FFFFFF9F204600445202300CA7
:100D7000883B002018002050880100201108010045
:100D80004000005009801F008F020000070700008C
:100D9000F0B5DE4657464E46454652189B46E0B5EE
:100DA000914237DADC00C54363B2A024ED179C46BC
:100DB000A4000540A54233DA0723F02799463133D2
:100DC0009846184C7F000AE046464010235C0131EB
:100DD000B343664609B23343235491421ADA0B1CDB
:100DE000B94201DBE023FF331BB2D843C0170340F5
:100DF0009800C0180123C00140190342E4D14E46B7
:100E00004010235C0131B3435E4609B2334323549F
:100E10009142E4DBF0BCBB46B246A946A046F0BD19
:100E2000014DC9E7883B00207F020000F0B5454630
:100E3000DE4657464E468446E0B585B00D00039128
:100E40000EA90C786244A04601900292904249DAC1
:100E50002A005D19E3005BB29C46AA4242DA0723EE
:100E6000F0269A463133994622487600019B19B202
:100E7000C943C9171940A02309B29B00994200DB5E
:100E80001D49E346039A09E04C465B10C75C0132FA
:100E9000A7435C462743C754AA421CD013B2171C71
:100EA000B34202DBE023FF331F1C3FB2FB430124AC
:100EB000DB171F40BB00DB19DB015B181C42E3D1D1
:100EC0005B10C45C013227005446A74344462743C5
:100ED000C754AA42E2D1019B029A0133DC46019336
:100EE0009342C3D105B0F0BCBB46B246A946A0466A
:100EF000F0BDC046883B00207F020000F0B54E46A2
:100F00004546DE465746E0B595B098461EAB1E787E
:100F10001FAB1C78A023099606949B00984200DB27
:100F2000B7E0A03B994200DBB3E0A4466300634412
:100F30005B001B18002B00DCABE0E3005B18002B10
:100F400000DCA6E093009A18F3005BB210934346CE
:100F5000DB005DB2A3B2079383B211930D9300231C
:100F60000B938BB21293AD4BAA46D318139307235E
:100F70009C46313399460B9B052B00D14AE1139ACD
:100F8000D35C02936B4634229B5E069A9B465A447E
:100F90000192129A0A93130008339BB208930B9B99
:100FA00005929B460392119A5A4413B2DB43DB1716
:100FB00013400C93029BDB0700D471E0069B012BCE
:100FC00000D1CDE06B460A990C229B5E019A0493F6
:100FD0008A4244DD9B46069D5D44AB423FDAF026E3
:100FE00000918F497600009B18B2C043C01718408B
:100FF000A02300B29B00984200DB8A48D346049AA3
:1010000009E04C465B10CF5C0132A7435C462743A6
:10101000CF54AA421CD013B2171CB34202DBE02308
:10102000FF331F1C3FB2FB430124DB171F40BB00F3
:10103000DB19DB011B181C42E3D15B10CC5C0132D5
:1010400027006446A74344462743CF54AA42E2D12F
:10105000009B019A0133DA4600939A42C3D1079963
:10106000029B8B465B080293059B01339AB2039B5C
:1010700005925B449BB20393089B93429AD10D9BCC
:101080000B9A5B4401329BB20B920D93062A00D05F
:1010900071E715B0F0BCBB46B246A946A046F0BD0C
:1010A000099B4345DBD0069B012B7DD06B460A99FB
:1010B0000C229B5E019A04938A42D0DD9B46069DDA
:1010C0005D44AB42CBDA53460E9343460F93109BDD
:1010D000F0269846099B00919A4651497600009B5C
:1010E00018B2C043C0171840A02300B29B0098421A
:1010F00000DB4C48C346049A09E04C465B10CF5CC9
:101100000132A7435C462743CF54AA421CD013B2F6
:10111000171CB34202DBE023FF331F1C3FB2FB432B
:101120000124DB171F40BB00DB19DB011B181C422D
:10113000E3D15B10CC5C013227006446A7435446E0
:101140002743CF54AA42E2D1009B019A0133D846EB
:1011500000939A42C3D10E9B9A460F9B98467EE716
:10116000F022059952000B1C09B2914201DBE023E9
:10117000FF331BB2DA43D21713409A00D3186A46E2
:10118000A0213020125EDB0189008A4200DB254A63
:101190009B18DA072CD5484621495B10CA5C82436C
:1011A00050460243CA545AE7F022059952000B1CDC
:1011B00009B2914201DBE023FF331BB2DA43D217BD
:1011C00013409A00D3186A46A0213020125EDB013A
:1011D00089008A4200DB134A9B18DA0711D548467A
:1011E0000F495B10CA5C824310980243CA5436E729
:1011F00060460B495B10CA5C824340460243CA54B6
:101200002DE7604606495B10CA5C82430998024399
:10121000CA5424E700230293B4E6C0462C5D0010B4
:10122000883B00207F020000024B1880024B19808F
:101230007047C04688A302208AA30220031C00280E
:1012400000D10123014ADBB2138070478CA3022036
:10125000024B1870024B18707047C04690A30220D2
:1012600091A30220F0B5CE46474680B5027804002F
:1012700083B0002A23D02A4B2A4E99462A4D0EE0ED
:101280000D2A09D0092A1FD19F21274A89001388D6
:101290008B4201D2043313802278002A0FD001340C
:1012A0000A2AEDD1214B1F4A1B881188DB005B18ED
:1012B000138000221C4B1A802278002AEFD103B041
:1012C000C0BCB946B046F0BD4B460020315E002799
:1012D000E85F164F1B78B8463F780197144F3F7868
:1012E0000097FFF70BFE43461A8829885300D3184E
:1012F0005B005B180F499BB209782B800029CBD08B
:10130000A020800084469100511A490061448B421C
:10131000C2DD3388D200D218002332802B80BBE795
:1013200091A302208AA3022088A302208CA302207A
:1013300090A3022093A30220094A830094464022EE
:10134000634410B51C68C0006240C0241440802271
:10135000520113431C60034B9C466044416010BD26
:1013600004C00140004001400A4B80009C46042319
:101370006044002901D00C230821002A00D10B0071
:10138000026853400C221A4080235B01184302601C
:101390007047C04604C00140084B80009C46604432
:1013A000002905D080239B01184340230360704728
:1013B000C0239B01184340230360F8E704C00140A9
:1013C0000123D0228340120693629361094A83006D
:1013D0009446402263441968C0004A40C02111402D
:1013E0008022520113431960034B9C46052360443D
:1013F0004360704704C0014000400140EFF310809B
:1014000072B6034A1368002BFCD0BFF35F8F70479E
:101410002C0100D0BFF35F8F0022024B1A6080F3D3
:10142000108870472C0100D070B5EFF3108C72B6A5
:101430000D4D2B68002BFCD0BFF35F8F0724CB082A
:10144000C618C05C01230C40A3401C0004400342AA
:1014500007D103433370BFF35F8F2C608CF3108888
:1014600070BD100000F0BAFF2C0100D0024B1868CC
:101470008007C00F7047C04600C006400021044BE3
:10148000044ABFF35F8F02C39342FAD17047C0464C
:10149000000100D0800100D0044A1078431CDBB268
:1014A000172B00D9102313707047C0468C01002001
:1014B00001238340002904D0034A1360034A1360C8
:1014C0007047034A1360FBE780E200E000E100E0C0
:1014D00080E100E001228240034B1B6813405A1E4A
:1014E0009341D8B27047C04600E100E0024B103093
:1014F0009B688000C058704700ED00E070B50D009B
:10150000EFF3108672B60F4A1368002BFCD0BFF3BE
:101510005F8F0D4B10309B6884001B590B4A934220
:1015200003D09D4201D000F071FF074B9B681D5115
:10153000BFF35F8FBFF35F8F0022024B1A6086F309
:10154000108870BD240100D000ED00E0CD01001036
:10155000F0B5DE4657464E464546E0B50C0083B032
:10156000EFF3108A72B65A4A1368002BFCD0BFF30F
:101570005F8F1022914681444A46564B96009B68E5
:101580009D59554B98469D4205D0A54216D0534FC4
:10159000EB1B2F2B14D94F4B9B689D51BFF35F8FD3
:1015A000BFF35F8F00224A4B1A608AF3108803B0A2
:1015B000F0BCBB46B246A946A046F0BD1D00EAE716
:1015C000012383409B465A46454B1B681A400092B4
:1015D0005A46444B1A60BFF35F8FFEF744FE0190FA
:1015E000002803D0814501D000F010FF01232A001C
:1015F0009A4393689C4208D15FE04B005B189B00C4
:10160000FB189968A14211D01A00062151560029F1
:10161000F3DA009B002B05D05A46334B1A60304B4F
:101620001A60B8E75A462F4B1A60B4E7062159569C
:10163000002921DB4A00501880003C188046A06831
:101640009860E079D871062020569871002824DB34
:10165000A488F81A6405241544440019E024000500
:10166000400D2402204398805218204B9200BF184E
:101670001A781970BA71CCE70199002910D1FF319D
:1016800091711B49918019490A789A71194ADB1B9B
:101690005B415A43120D0A70BBE7BD200002E2E72E
:1016A000154A1649D21A083A5002400D0143998052
:1016B000134952080A43DA80ABE70621515613005A
:1016C0000029B7DA019A002AEAD14546DBE7C0468D
:1016D000240100D000ED00E0CD01001090010020B9
:1016E00000E100E080E100E080E200E08FA3022062
:1016F00000BDFFFFAAAA0000CA01002000F0FFFF02
:1017000000F8FFFFF8B5012504000543FEF7ABFD27
:10171000EFF3108C72B6214A1368002BFCD0BFF394
:101720005F8F1F4E2100B7681E4A1F4B891A49411F
:101730004B431B0D59B28300F858A8421CD0062316
:10174000D3568B421CD01223D3568B4222D01E2359
:10175000D3568B4220D02A23D35603208B4210D05D
:10176000124B1A781970A271BFF35F8F00220B4BD6
:101770001A608CF31088F8BDB2680D48D050EFE7BE
:10178000002043001B189B00D218FF239371094BC4
:101790009380E5E70120F4E70220F2E7240100D07E
:1017A00000ED00E090010020AAAA00008FA3022013
:1017B000CD01001000BDFFFF054B064A1360064A2D
:1017C000136053609360D3601361536193617047FA
:1017D0008080808000E400E004E400E0024B9C464E
:1017E00061448900016070474000003483680B4801
:1017F00010B5844661446244090112019A185918CF
:1018000054684B6801209C4201D802D00020C0B22D
:1018100010BD12680B689A42F9D8F7E7FFFFFF0F77
:10182000F8B557464E464546DE46E0B599460CAB00
:101830001C780DAB1B78060090469A460768002C72
:1018400011D1BC7B002C42D065003B682D19033DB3
:1018500059194B78BB73002B00D1FB7300238B709D
:101860004B700B7004E065003B682D19033D59195E
:10187000B2682A4B94464246E3181B0163441A603F
:101880004A465A600A9A9A600B9ADA6000238B7073
:101890004B700B707B7B9B46002B2BD02200594654
:1018A000B8687B6898473A68002816D05B46584667
:1018B0005B005B445519033BA870D118D35C002B27
:1018C00000D06B705B460C707B73A34513D0F0BCEB
:1018D000BB46B246A946A046F8BD5B465B005B44EA
:1018E000033BD3189C705119525D002A00D05A70E6
:1018F0005B460B707C7342464B46307D00F008FA25
:10190000051E06D05346002B03D12100306800F09D
:1019100021FC0E9B002BDAD01D70D8E7FFFFFF0FD4
:10192000F0B5DE464E46574645460023E0B58DB03D
:101930000A936B4B8200D3580B90994600239B4629
:101940004B46079300F06AF9079C06000F00626897
:10195000EFF3108572B61368002BFCD022000794B9
:10196000BFF35F8F2468637B9946002B67D0926832
:101970005C4B90464B441B01984443461A685B6895
:1019800010001900801BB94100295FDD0B9800F0A1
:10199000BFF900230026984600279A46079C6368F3
:1019A000BFF35F8F5A461A6085F310885346002BA9
:1019B00008D10028C6D10DB0F0BCBB46B246A9463E
:1019C000A046F0BD0A9B414618024B461843D0473B
:1019D000089009916268EFF3108572B61368002BC6
:1019E000FCD00794BFF35F8F0899099A002A48DB5F
:1019F000114303D0079B1B69002B5DD1079B1B681C
:101A0000D97B002907D04A00521819688C464946EC
:101A10006244033A51704A46DA734B46079A013BD7
:101A2000D168CA5C0132CA545B46079A1361536895
:101A3000BFF35F8F5A461A6085F3108882E7002350
:101A40000026984600279A460020A7E7002901D1E2
:101A500000289BD10021200000F0FEFA43461E68BA
:101A60005F689B68079A9A464346DB689846D36846
:101A70004B44013B1B780A931B0203431361002074
:101A80008CE72369002BB9D033003C005B1A9441EA
:101A90001A002300A74219D89F421BD0594604912F
:101AA000012103914946029141460191514607980F
:101AB0000091FFF7B5FEB7E700F0B0F8089A099B70
:101AC00006000F0092197B419942E5D9012252424A
:101AD000D317E3E79642E1D901225242D317DDE75B
:101AE00050360020FFFFFF0F10B5124C6368002B2B
:101AF00004D00A211048FFF771FE10BD23000F4AE1
:101B00001021206800F0C6F9032000F07BF80320C4
:101B100000F06EF903200A4900F0B4F8FFF7BCFCAE
:101B2000084B9C46032360442375074B800060608C
:101B3000DC60DEE7D8010020683B0020ED170010D4
:101B4000211900104000003450360020F0B5D64670
:101B50004F464646C0B5EFF305833F2213401800B9
:101B60001038EFF3108C72B6204D2A68002AFCD092
:101B7000BFF35F8F0122110081401D4C88466163D5
:101B80001C4917000E788A463100C1400F400A42B6
:101B900009D1BFF35F8F2F608CF31088E0BCBA4689
:101BA000B146A846F0BD14498200646A51588C427F
:101BB0000FD3124BD25843469E4353461E70BFF379
:101BC0005F8F00232B608CF31088002AE6D09047AB
:101BD000E4E70B4A9B00904643441A681A60BFF33F
:101BE0005F8F00232B608CF31088D7E7280100D08B
:101BF0000040054092A302206C3B00208C15002081
:101C0000D03F054010B50100024A0348FFF70CFC25
:101C100010BDC046846200108EA30220034B596A97
:101C20000A00986A596A8A42FAD170470040054012
:101C300070B504000D00124A536A1900966A536A7F
:101C40008B42FAD13000190024184D41AB4211D813
:101C50000ED02B000A494A6A9A42FCD307D1084A9F
:101C600002E0516A994202D1916AA142F9D370BD52
:101C7000A642EED9012301246442E5175B42E9E75D
:101C80000040054070B504000D00EFF3108672B6F9
:101C90001A4A1368002BFCD0BFF35F8F002D1BD0B6
:101CA0002000FFF723FC164981420AD02000FFF7ED
:101CB00025FC01212000FFF7FBFB0123A340114A73
:101CC0001360114BA400E550BFF35F8F00220B4B54
:101CD0001A6086F3108870BD0B4BA200D55001220C
:101CE000A2400A4920000B7893430B700449FFF788
:101CF0002FFC00212000FFF7DBFBE5E7280100D0E7
:101D00004D1B0010386005408C15002092A3022066
:101D1000F0B54F46D6464646C0B507002F4C616A1F
:101D20000D00A66A616AA942FAD18B4208D805D093
:101D30000120E0BCBA46B146A846F0BDB242F7D990
:101D4000EFF3108A72B6264801680029FCD0BFF371
:101D50005F8F0125BD402349204C8846097889467C
:101D60002943C9B28C46414660460870391D1E4859
:101D7000890065630A51B9000B50216A002029428D
:101D800019D0616A0800A66A616A8142FAD18B4261
:101D900019D801D1B24216D8CC451DD00F4B1F2007
:101DA0001D625D6301230740BB40104A1E3813606B
:101DB00043464A461A70BFF35F8F0022084B1A60F1
:101DC0008AF31088B5E70020BFF35F8F0022044B31
:101DD0001A608AF31088ACE70120ECE70040054068
:101DE000280100D092A302206C3B002080E200E09A
:101DF000EFF3108C72B60A490B68002BFCD0BFF3CE
:101E00005F8F01238340074A0748136202789A4391
:101E10000270BFF35F8F00230B608CF31088704754
:101E2000280100D00040054092A3022070B50500B3
:101E300014001600002915D00C00002A12D080686A
:101E40006B689847296800280ED073009B196200C0
:101E5000033B1219CB18033A9C7088188A5C002A3D
:101E600015D10670200070BD63001B197200033B82
:101E70009219CB18033A9E7088188A5C002A02D106
:101E800004703400EEE75A7004703400EAE75A70C8
:101E90000670E7E730B583600023CCB243730133AB
:101EA000047342608373C4730D000068012C06D96B
:101EB000421C0133DBB2137003329C42F9D1FF2183
:101EC00029404B005918002340180338437030BD97
:101ED000F8B5CE46474606000C0080B5002907D06D
:101EE0004D0003686D18033D5A195778002F04D12F
:101EF0002000C0BCB946B046F8BD7900C919033905
:101F00008846434459788946002159705170736856
:101F10003A002100806898473368002814D0424670
:101F20009A18947059195B5D002B00D053700F7094
:101F3000270049463000FFF7CBFF39000200300090
:101F4000FFF774FF0400D3E7424641465D19AF70C6
:101F50009A185B5C002B00D06B701470E9E7C046E8
:101F6000F0B557464546DE464E46E0B50D006B00DF
:101F700001685B19DF1E0400C85D83B00192CA19B5
:101F800000284CD043001B18033BCB185E78B446A6
:101F9000002E16D1019E002E3ED0E67B002E04D0EE
:101FA00073009B19CB18033B5D70E57300282FD19C
:101FB0000023537003B0F0BCBB46B246A946A0460E
:101FC000F0BD72006244033A89184A7890460022B4
:101FD0004A7091465A70010032002000FFF726FF38
:101FE00043468246002B07D05B0021684344033BF5
:101FF000CB185A78002A16D1424651462000FFF7E6
:1020000015FF2168019BCA19002BC6D10028CFD02B
:1020100043001B18033BCB1800219970C8E7019BB4
:10202000002BBAD1C4E7500080180338091848784B
:10203000834648464870587041462000FFF7F6FE38
:10204000594680462000FFF743FF4146020020002A
:10205000FFF7ECFE8046CFE7F0B557464546DE4633
:102060004E46E0B583B00191457B04006B000068EB
:102070005B19DF1EC15DC21900294ED04B005B18F1
:10208000033BC3185E78B446002E18D1019E002E83
:1020900040D0E67B002E04D073009B19C318033B8D
:1020A0005D70E573002931D10023280053706173FE
:1020B00003B0F0BCBB46B246A946A046F0BD7200D4
:1020C0006244033A8018427890460022427091465A
:1020D0005A7020003200FFF7A9FE43468246002BCB
:1020E00007D05B0021684344033BCB185A78002A91
:1020F00017D1424651462000FFF798FE019B010090
:102100002068C219002BC4D10029CDD04B005B1828
:10211000033BC31800209870C6E7019B002BB8D181
:10212000C2E75000801803380918487883464846AB
:102130004870587041462000FFF778FE59468046A7
:102140002000FFF7C5FE414602002000FFF76EFEAB
:102150008046CEE770B5040000292CD0437B8B422B
:102160002ED0056848004018033828188278002AC5
:1021700021D053009B18033BEA5CEE188A4202D13F
:102180001BE0002A08D053009B18033BEB185A7839
:102190008A42F6D142785A7000230122837043703C
:1021A0002000FFF7DDFE617B02002000FFF73EFE0E
:1021B0006073012000E0002070BD43783370EBE7CE
:1021C00001221900FFF7CCFE60730120F4E7C0463E
:1021D00010B50400FFF760F901002000FFF7FEFAD8
:1021E000FF232371BFF35F8F10BDC04610B50400FD
:1021F000FFF752F901002000FFF7F0FAFF23A38058
:10220000BFF35F8F10BDC046F8B5040006200D0077
:1022100000F060FA002844D02A4B2B49E2185342C0
:102220005A418023DB039C469205284B62441A6086
:10223000274B1A6010008B689843FBD1214B8021FB
:10224000E3185A425341234A5B0049009952062041
:1022500000F040FA2900C00001F0FAFDC30921D1C5
:1022600040270121260080256162A36200232C36CD
:10227000AD0135432B60062000F02CFA39008000B8
:1022800001F0E6FD6023E26A53406E221A4080238B
:102290005B0133431A60104B236310232B600D3B0B
:1022A000A364F8BD0D4A934203D900230C4F0D4996
:1022B000D8E77F221040013040089F0119003F18E5
:1022C0000300CFE70080FCBF00C0004000E00040FA
:1022D00000F00040803B002001030000FEFF0000F2
:1022E000C0FF3F00FFFF00002C4B2D4A70B51A6065
:1022F0002C4A2D4B2D491A6014008B689C43FBD14E
:102300002B4D2C4EB54208D2013E761BB60808CDA7
:10231000984723000134B342F9D100F07DF8264AF2
:10232000214B1A60214A9368DB43DB01DD09002B56
:10233000F9D14022214B224C224E9A675A671A67E4
:10234000DA66B44208D223682000002B20D008347B
:10235000FFF74CFFB442F6D31B4E1C4CC022A168C1
:10236000300003F0D3F8A660FFF788F8FFF724FAEF
:10237000FFF7BAFB164C174EB44208D2013E361B8B
:10238000B60808CC98472B0001359E42F9D170BDA4
:102390000834FFF71DFFB442D5D3DDE700E000406D
:1023A000BFCDFBFEFE7F3C0000F0004000C00040BF
:1023B0004402002054020020FFFFFF0100F0014012
:1023C00034020020440200200000002000ED00E064
:1023D000540200205C02002000BEFDE70FB400B5EF
:1023E000084883B003F0C8F9049B002B07D005A967
:1023F0001800019101F0B2FC034803F0BDF900BEE2
:10240000FDE7C046A8620010B862001010B5014890
:10241000FFF7E4FFBC62001030B50C2083B000F081
:10242000B7F9FFF723F800280ED0944B944A1A60AE
:102430005A609A60DA601A615A619A61DA611A62C6
:10244000904A5A6203B030BD8F4CA06700F0A8F9E3
:1024500001228E4B1A60636C012BFCD103228C4B42
:102460001A60894A936B012BFCD101330121894AFF
:1024700089480093043300F033F90523874A009319
:102480000121874800F02CF9864B5A68FF2A02D8B0
:10249000802252005A608022784C7D4B21691201C3
:1024A000804D1A60002905D0606901F0D1FC01302F
:1024B0000138FDD1E0217B4B02201A6811408022B7
:1024C00052012A43116019684840032101401160FC
:1024D00004219A681142FCD08022802192012A4373
:1024E00009011160802252005A606F4B23616F4BCB
:1024F0005968FF2900D85A600321644A6B4B116068
:1025000002399A681142FCD0E0201A6810408022FB
:1025100052011A431060186848400321014002200C
:10252000116062498A681042FCD0802292011343F4
:10253000802212011A6080225D4B52004A60636162
:102540005C4B5968FF2900D85A6080225A4BE169D8
:102550001201584D1A60002905D0606901F078FC1D
:1025600001300138FDD1E02252490B681A40802326
:102570005B012B431A60802380229B012B431201B5
:102580001A6080223E4B52004A60E3614B4B59680F
:10259000FF2900D85A608022494B216A1201474D19
:1025A0001A60002905D0606901F052FC0130013841
:1025B000FDD1E02241490B681A4080235B012B4387
:1025C0001A60802380229B012B4312011A60802312
:1025D00080225B004B602A4BD2022362394B596840
:1025E000914200D25A608022374B616A1201354D08
:1025F0001A60002905D0606901F02AFC0130013819
:10260000FDD1E0222F490B681A4080235B012B4348
:102610001A60802380229B012B4312011A608023C1
:10262000DB024B60174B6362284B5A68FF2A02D8C3
:10263000802252005A608022254BA1691201234D4D
:102640001A60002905D0606901F002FC01300138F0
:10265000FDD1E0221D490B681A4080235B012B430A
:102660001A60802380229B012B4312011A60802371
:102670005B004B600E4BA361E4E6C0469C15002056
:10268000006CDC021BB70000008000403CB0004042
:1026900030B00040002F685900800240008C86470F
:1026A00000C0024030800040001BB7003C8000406A
:1026B000405973075480004054B00040608000408F
:1026C00060B000406C8000406CB00040488000402A
:1026D00048B00040014B8000C05870479C15002056
:1026E000F0B5C646040000B50C2090461F000E0051
:1026F00001F0AEFB4101091A8D01691AC9000918E0
:102700008901404601F0A4FB069B3F041A0323689D
:102710001743002B22DB1A4B1A4DE21853425A4141
:1027200080235B019C461203174B62441A60174BCF
:102730001A601100AB689943FBD1C022231D92019E
:102740001A4321232660A06013602368002BFCDA63
:102750000823E760136080BCB846F0BD3F232268C1
:102760001340B342D7D1A3681B051B0D8342D2D1BE
:10277000EE22E368D2021340BB42CCD1EBE7C04665
:102780000040FDBF00C0004000E0004000F00040FD
:102790008023024A9B000343D362704700800540B8
:1027A000AA23064A1B0113602F230549D360054B5A
:1027B00019605368002BFCDA7047C04600400240A5
:1027C00000B0FA00006002409A4200D2885470477C
:1027D0007047C046F8B557464E464546DE46E0B51A
:1027E00099460A9B07009A460D9B8846934615001A
:1027F0000B9E9B0710D10C9B9E420DD29D1B14007B
:102800000E005D4422004B46013431002020B847C1
:10281000A542F7D1B0460B9E002E27D0444675192D
:102820005346AA1B013E985D21004B46B847002E37
:10283000F6D123002C0098460D9B9B070FD55B46D5
:10284000E51A0C9BAB420AD94646984622004B46F5
:10285000310020200135B8470134A845F6D82000C2
:10286000F0BCBB46B246A946A046F8BD2C00E3E743
:10287000F0B54F464646D646C0B584B098460EAB36
:102880001B78129F994694460D9C109B119EBA0787
:1028900025D4002E4BD19C4200D3BFE001223A4008
:1028A00092461F2C00D9B8E00C9A551E302201E048
:1028B000202C03D001342A55A342F9D85246002ACD
:1028C0000DD0A6420BD9202C44D00C9A551E302294
:1028D00001E0202C3ED001342A55B442F9D1FA0649
:1028E0004DD57A053FD4002C39D10F9B102B00D148
:1028F00079E00F9B022B00D18AE030230C9A01244F
:1029000013704B46002B3FD02D230C9A13550134E6
:102910000C9B624600930397434602960194FFF78F
:1029200059FF04B0E0BCBA46B146A846F0BD01224A
:1029300015003D40AA463A422FD04A46002A02D10D
:102940000C323A4200D0013E9C42BAD21F2CABD985
:10295000202E27D92024FA06DAD57A0503D4A342FB
:102960002DD0A6422BD00F9B102B32D0022B20D083
:10297000202CCDD030220C9B1B191A700134202C36
:10298000C6D04B46002BBFD17B070DD43B07BFD52C
:1029900020230C9A13550134BAE79C429FD21F2C76
:1029A00000D881E720249AE72B230C9A1355013491
:1029B000AEE7202CACD00C9B1B1901343AE0631E0F
:1029C000012C92D00F9A102A2AD0022A2FD01C0054
:1029D000D0E7BB060ED4202C9AD00C9B1A190134D8
:1029E00078231370C4E7BB060DD478230C9A012416
:1029F0001370BFE7202C00D18AE758220C9B1B19CB
:102A00001A700134B4E758230C9A01241370B1E70B
:102A10000C9A603301241370ACE7202400265EE793
:102A2000023CBA06E9D40C9A12191C00D8E70C9A99
:102A30009246534462221A709AE7C04610B50028A5
:102A400000D110BD02F048FEFBE7C046F0B5DE46FF
:102A500057464E464546E0B59BB09B46249B89466B
:102A60009846259B0B900C924046424619009A4688
:102A700001F0CBFC002800D0D8E0012240465146AE
:102A8000774B524201F0BCFC002800D0CEE001227E
:102A900040465146734B524201F09CFC002800D046
:102AA000C4E0002200234046514601F093FC002878
:102AB00000D0B9E1424653460A9209938023289AEE
:102AC000DB001A400E92289A1A4201D1062326935F
:102AD0000A9A099B1600134300D0C7E0289B0025E3
:102AE00000261B0500D49BE100230D93269A0D9B25
:102AF0009A4200DC9FE1D01A431E26938023289A35
:102B0000DB001A430023002728920D93279B002403
:102B1000BB4200D9DC1B0223289A1A400E92289A45
:102B2000134203D07B427B415B421C400D9B002B38
:102B300007D00A9809992A00330001F0EAFB0A90AD
:102B40000991002200234046514601F043FC002831
:102B500005D0802000068446099961440991289A8D
:102B6000414B0B9D13400493269B0A9A0293099BA9
:102B700003940092019349465B4628000C9A00F0AA
:102B80008BF90400002F62D0289B220098061F2397
:102B9000C0179843631C984649465B466530A84772
:102BA0000D9B0025DA179C18DB0F9A465440013F15
:102BB00001E0202D13D00AAA94461F23200063446D
:102BC0000A2101355E1901F043F9303131702000DE
:102BD0000A2101F03DF926000400092EE9D8052359
:102BE0000693002304930A330393534605970B9FE0
:102BF000029312AB009342465B464946380001956A
:102C0000FFF736FE0E9B0400002B20D00C9BC51A4C
:102C1000279BAB421BD91E0022005B464946202061
:102C20000135B8470134AE42F6D810E0289B424641
:102C30000493279B49460393269B0B980293534684
:102C4000009201935B460C9A00F026F904002000E4
:102C50001BB0F0BCBB46B246A946A046F0BDC0467C
:102C6000FFFFEF7FFFFFEFFFFFF7FFFF734B099FB2
:102C70009C467800400D604401F0DAFB704A714BCD
:102C800001F065FB704A714B01F03AFB3B03704A5F
:102C90001B0B1A4304000D00300011006D4B002285
:102CA00001F025FB6C4A6D4B01F051FB02000B005B
:102CB0002000290001F024FB01F0D2FB0D9001F06F
:102CC000B7FB674A674B04000D0001F040FB002290
:102CD000654B01F015FB01F0C3FB644A0600644B31
:102CE0002000290001F033FB040030000D000F9696
:102CF00001F09EFB5F4A604B01F029FB02000B00D4
:102D00002000290001F0F3FA02000B0006000F007A
:102D100001F01DFB320004000D003B0030003900C3
:102D200001F0EEFA002210901191544B200029007E
:102D300001F0EFFA0022524B01F0E2FA02000B0020
:102D40002000290001F0E5FA00224E4B01F0D8FAEC
:102D500002000B002000290001F0DBFA0D008021A9
:102D6000040032003B000020C90501F0C0FA020057
:102D70000B002000290001F0C3FA02000B0010989C
:102D8000119901F0C6FA0022314B01F0B9FA3E4B1D
:102D90000F9C9C4664440022230501F0D8FA0500EC
:102DA0000E0002000B000A98099901F013FB00289D
:102DB0000AD00D9B2800013B31000D930022304BBF
:102DC00001F0A7FA05000E00C6270D992B0063310C
:102DD0008F42BF4128997F420437090500D495E608
:102DE000334300D182E6099C284A2100284B0A98E7
:102DF00001F0FEFA002808D000222100254B0A9895
:102E000001F0E8FA002800D070E6269B002B00D1E4
:102E10007CE60E9B5A1E9341269AD31A269375E69A
:102E2000002304270D9371E643460A9380231B0673
:102E30005344099342E6002326935FE601FCFFFF1B
:102E4000FB799F501344D33FB3C8608B288AC63F99
:102E50000000F03F0000F83F61436F63A787D23F57
:102E600071A379094F930A400000E03F1655B5BBA6
:102E7000B16B0240EF39FAFE422EE63F00002C40D3
:102E80000000244000001840FF0300002D431CEB0D
:102E9000E2361A3F80842E41F0B54E46DE46574654
:102EA0004546E0B597B09946209E219F229B8346D8
:102EB000984607910C923B0032003000390001F037
:102EC000A4FA002800D0A9E1012230003900CA4B41
:102ED000524201F07FFA002800D0E1E001223000E8
:102EE0003900C64B524201F08BFA002800D0B7E0FF
:102EF000002230003900C24B01F082FA002800D0D5
:102F000099E0002230003900BE4B01F063FA00283E
:102F100000D090E0002200233000390001F05AFA7E
:102F2000002800D0B1E000230D93249B5B0501D461
:102F30000623984608AB9C461722002430234146BE
:102F4000624404E0013413550139202C01D00929D1
:102F5000F8D888463000390001F082FA4346DA009A
:102F6000A94B05009B181A685B680892099301F049
:102F70005FFA02000B003000390001F0B8F9089A3E
:102F8000099B01F0E4F90A900B9101F08DFA824659
:102F900001F04AFA02000B000A980B9901F0A7F918
:102FA00000229A4B0A900B9101F02AFA002800D1D6
:102FB000C0E001239C46E244504601F035FA02008D
:102FC0000B000898099901F00BFA002802D00023A1
:102FD0009A4601354346002B6AD008AB17269C461B
:102FE00008956644554614E001235B4243440A2198
:102FF00028009A4600F02CFF01343031371939701F
:1030000028000A2100F024FF092D00D8D0E0D04686
:103010000500202CE8D10EAB98460323249A1340D8
:10302000012B00D196E02023249A01930392239A46
:10303000434602921EE0249B58460493239B00962D
:103040000197039343460C9A029307994B46FFF767
:10305000FDFC17B0F0BCBB46B246A946A046F0BD89
:10306000249B5B070ED40322694B249901920391A0
:1030700023990291009358464B460C9A0799FFF703
:10308000A9FBE6E70422634BEFE73B003200002098
:10309000002101F02CF9012306000F000D9344E7F5
:1030A000249B0393239B0293042301935A4BE1E750
:1030B000280001F0BDF902000B003000390001F0DA
:1030C00016F9524B002206000F0001F083F90EABF7
:1030D000984600280AD10022300039004B4B01F0FD
:1030E0008FF9002802D1EB0700D50135202C94D0B0
:1030F00008AA94461723280063440A2101341E19A4
:1031000000F07EFE3031280031700A2100F078FE98
:10311000051EEBD10323249A1340012B1BD0202C36
:1031200000D180E70D9B002B35D02D224146631C3A
:103130000A5579E700220A980B99344B01F04AF9B5
:10314000002800D046E75346002B51D101239C466E
:10315000E2443FE72024239B002BE0D00D9B002B73
:1031600003D1249A0C33134202D0239B013B2393B7
:10317000239BA342D3D908AB9C4617223023624439
:10318000202C00D14FE72399013413558C42C6D02F
:10319000202CF8D147E7249B5B0724D4249A2300F2
:1031A000120700D440E72022414601330A553BE78D
:1031B0005746089D202C00D12DE7220030214046A3
:1031C000002F09D00132B154202A00D123E7D34384
:1031D0001B191B18002BF5D10EAB98462E23414628
:1031E000541C8B5482E72B224146631C0A551BE773
:1031F000DB0700D4EEE6A9E7FFFFEFFFFFFFEF7F5D
:1032000065CDCD4165CDCDC1C06400100000E03F6B
:10321000C8620010CC620010D8620010249B039397
:10322000239B029303230193004B23E7D4620010F6
:10323000F0B5DE464E4657464546E0B59FB01C0009
:10324000289B91460993C94AC94B8B4608901A603E
:10325000002900D118E2002320789A46002800D1E6
:103260001AE226001D005C460AE02A006F1C4B464D
:10327000089D2100A8473D0001363078002870D015
:103280002528F2D110239B46083B9A46043B9846DA
:10329000023B00219C46721C107816000300203B64
:1032A000DBB2102B03D8B34F9B00FB589F460300A3
:1032B000303B092B32D900230A932A2868D00023F7
:1032C00098462E283ED00300683BDBB2122B1CD858
:1032D000A94A9B00D3589F46012301321943DBE7DB
:1032E000634601321943D7E7434601321943D3E716
:1032F0005B4601321943CFE7534601321943CBE70E
:1033000080235B007078194301360300253BDBB254
:10331000532BAAD8994A9B00D3589F4600270300F5
:10332000B800C01901364000C018337830381A0090
:10333000303A0700092AF3D90A901800002398466A
:103340002E28C0D180237078DB0019430300303B66
:10335000721C092B00D8A1E12A2800D1B2E1160085
:10336000B1E7A346AA462C00D14503D801235B420E
:103370004B449A464B46524659460020089DA84762
:1033800020001FB0F0BCBB46B246A946A046F0BD27
:10339000099B40CB0A96002E03DB50780993561CFC
:1033A0008DE72838014370420A9009935078561CE3
:1033B00085E7782800D1DFE1582800D14CE26F285A
:1033C00000D14FE3622801D100F030FC10230A0045
:1033D0009A430B92692801D000F0A9FC0A230C93B0
:1033E0004B0500D5D0E10B9A802311009B001940BA
:1033F0008B461A4200D0A1E2802311005B001940E5
:103400008A461A4200D0B6E313005B0600D5EDE20F
:10341000130009991B0601D400F076FC08C91BB201
:10342000D8171A18424092B209919346DA0F1292B5
:10343000002B09D1802310220B99DB000B40914314
:103440000B91002B00D0E4E20B9A6123920600D589
:1034500041230EA91F228C46DBB262440A3B5F4621
:103460001395A34655460C9CB2460D9316000AE0F0
:103470003033DBB201357355A74200D2EDE2202D87
:1034800000D1EAE207002100380000F0E1FCCBB2F5
:103490000929EDD90D9A94466344DBB2EAE780230B
:1034A0009B007078194301362FE77078682800D1A7
:1034B000CDE180230136194327E770786C2800D1CD
:1034C000BFE180235B00194301361EE7462800D187
:1034D0009BE10722099B0491073393430A9A190041
:1034E0000392424602920CC90898009201930991F6
:1034F0002A004B462100FFF7CFFC01360500BCE651
:103500002A006F1C4B46089D21002520A847013644
:103510003D00B2E68B0700D4ADE1099B2A009A4634
:103520006B1C9846534601CB21009A46089F4B4698
:10353000C0B2B8470A9B9C466544012B00D886E27E
:10354000089B4746B04626004C4699463A00230061
:10355000013731002020C847AF42F7D1A14653467A
:10356000340046460993013687E6C04631320010E2
:1035700040360020E06200102463001070630010E9
:10358000099B04CB9B4643460992002B00D1C6E021
:1035900013789C46002B00D1BDE34346013B099ABA
:1035A0000133D0180A9F130001E0834203D05A78F8
:1035B0000133002AF9D1099A0A979B1A0B938023A9
:1035C0000A00DB001A400C92194204D00B9B4345C1
:1035D00001D943460B9302231A000A400D920B4275
:1035E00000D187E16046002800D168E10C9B002BE8
:1035F00000D10DE1A844C246099B57465B1B984683
:10360000089BB2462A0026004C46994609E0230052
:103610003100551CC8474346585D002800D126E1BB
:103620002A009742F3D1A1463D00340056460D9B37
:10363000002B00D043E15B46013609931DE6099B50
:103640001A0008CA9246002B48D0212211438B460B
:103650000EA884461F216144099500220F27A44625
:103660000D0002E0202A0CD00B003C001C40200082
:103670003730092C00D807380132A85419090F2B0C
:10368000F0D86446099D32E0DC4B20780893002393
:103690009A46002800D0E4E5002465E6434606008B
:1036A0000A9F9800C0180132400080191678030064
:1036B00030003038303B0928F3D9300098461600E6
:1036C0000A9700E6099B023604CB9046D243404657
:1036D000D2171040804609933078F4E51022080094
:1036E000904311321043834600224905B0D55B4612
:1036F0000693082305934346049310230393002362
:10370000029316AB019200932A004B4621000898C1
:10371000FFF7AEF85346050001360993ADE513787F
:103720009C46002B00D1F7E202235B4237E72023BF
:1037300002009A43472A04D180231B011943022324
:103740009843452801D1202319430722099B04915E
:10375000073393430A9A19000392424602920CC916
:1037600008980092019309912A004B462100FFF727
:103770006DF90136050080E510230C930C230A0037
:103780009A430B924B0503D501230B9A9A430B9254
:10379000692800D127E6642800D124E60B9A80230B
:1037A00011009B0019408B461A4200D066E180232D
:1037B00011005B0019408A461A4200D039E213001A
:1037C0005B0600D53CE113001B0600D4A6E2099B72
:1037D00004CB1204120C934609935B46002B00D0D5
:1037E0009AE10B9A1033110099430B91520500D4C2
:1037F00092E100239A460B9B06930A9B059343464E
:1038000004930C9B039300230CE12023194360E6EF
:10381000099B0A9A5B1B98464B4691461F00B2468D
:103820002600089C2A003B003100A0474346013592
:10383000585D0028F6D14A463400B94656460A92E9
:10384000F5E6C0239B00B078194302365DE5C0233E
:10385000B0781943023658E50C230A009A43143312
:103860001A43103B0B920C934B058DD496E7A1465F
:1038700034005646DBE60A9A012A00D853E26B1E52
:103880009F18089BB04626004C4699462A00230004
:10389000013531002020C847BD42F7D1A146340090
:1038A0004646099B3A0001CB210098467D1C4B46B9
:1038B000089FC0B2B847434601360993DDE40B9B2D
:1038C0000A9AA8469A4200D8B5E694466544ED1A8D
:1038D000089B4746B04626004C4699463A002300CE
:1038E000013731002020C847AF42F7D1A14634004C
:1038F0004646A0E60B9A0A99531C914200D814E25E
:103900004B199B1A1F00089BB24626004C4699464D
:103910002A002300013531002020C847BD42F7D1DD
:103920000A9BA14601330B93099B34001B78564632
:103930009C466046002800D058E67CE60722099B9A
:1039400007339343013294469C4462465F68099270
:103950001A68FB17109311931098119903005340A4
:103960000E930B007B400F9394460E9A0F9B121AF6
:103970008B410E920F93FB0F6246129300233A4342
:103980009B463DD00B9A6123920600D5412300222D
:10399000DBB20EA90A3B8C4692460D9343461F327A
:1039A00062441395159655460E9E0F9FA24690466B
:1039B0000C9C14930CE03032D2B2434601355A5578
:1039C000BB4500D18AE1202D00D18AE106000F001D
:1039D000220000233000390000F07CFAD2B2092A1C
:1039E000E9D90D9B9C466244D2B2E6E7FF230999D0
:1039F00004C913401A00099117E5C046D1270010E9
:103A00000B9A1033110099430B915205BAD500233C
:103A10009A460B9B06930A9B0593434604930C9B83
:103A20000393129B02935346019316AB2A00009313
:103A300021004B460898FEF71BFF013605001CE4E9
:103A4000FF22099B02CB11408B460993C5E65346E2
:103A5000454609930136FFF710FC56465C46AA46D8
:103A6000139DD6E708230C930B910B99642800D083
:103A700084E60B9B5B0500D586E6B4E40722099B30
:103A800007339343013294469C44624609921A6874
:103A90005B6810009B4613005A46134307D10B9AEC
:103AA0001033110099430B91520500D5A1E60B9AF2
:103AB0006123920600D541230022DBB20EA90A3B06
:103AC0008C4692460D9343461F3262445F461295E0
:103AD000A34655460400B24690460C9E13930DE053
:103AE0003032D2B2434601355A550023BB4200D191
:103AF00000E1202D00D100E104000F00320000237E
:103B00002000390000F0E6F9D2B2092AE8D90D9B6D
:103B10009C466244D2B2E5E70B9A6123920600D537
:103B20004123DBB20EA90A3B1F228C460D932300D2
:103B300062445C461295170055469B46B2460C9E61
:103B400008E03033DBB201357B55B4420ED3202D73
:103B50000CD004003100200000F07AF9CBB2092922
:103B6000EFD90D9A94466344DBB2ECE756465C46C7
:103B7000AA46129D3FE6099B1A0008CAD91713925C
:103B80005A184A409246DA0F1292002B08D180232D
:103B900010220B99DB000B4091430B91002B2BD192
:103BA0000B9A6123920600D541230EAA1F27944643
:103BB000DBB20A3B0D9567445D460993A346544624
:103BC000B2460C9E08E03033DBB201357B55B4427F
:103BD0000ED3202D0CD004003100200000F038F965
:103BE000CBB20929EFD9099A94466344DBB2ECE7DA
:103BF00056465C46AB460D9D0B9B2A0006930A9BDE
:103C000021000593434604930C9B08980393129B51
:103C1000013602935B46019316AB00934B46FEF7C9
:103C200027FE139B05000993FFF727FB02230C9344
:103C30001AE7099B04CB92461293002A08D18023ED
:103C400010220B99DB000B4091430B91002B2BD1E1
:103C50000B9A6123920600D541230EAA1F27944692
:103C6000DBB20A3B0D9567445D460993A346544673
:103C7000B2460C9E08E03033DBB201357B55B442CE
:103C80000ED3202D0CD004003100200000F0E0F80D
:103C9000CBB20929EFD9099A94466344DBB2ECE729
:103CA00056465C46AB460D9D0B9B2A0006930A9B2D
:103CB00021000593434604930C9B0898039300232B
:103CC00002935B46019316AB00934B46FEF7D0FD83
:103CD000129B050009930136FFF7CFFAB44200D8D2
:103CE00071E6149B54460E960F97AA469846159E69
:103CF000139D8EE6A64200D8FBE6139B56469846D7
:103D0000AA465C46129D76E508C9D8171A184240A3
:103D10000991FFF78AFB00230B9350E4099B04CB26
:103D20009346099359E52F00BBE50B9301E6063B4B
:103D30000C939AE60EB4012210B585B007AC08CCFE
:103D400001000094524204480394FFF771FA05B051
:103D500010BC08BC03B01847C927001010B5094AA9
:103D60000300146884B0002C08D00122009106489A
:103D7000524203A9A047012004B010BD01F0FCFC91
:103D80000020F9E7403600203D2A001001480421B8
:103D9000014B184700020020BD3D0010142310B550
:103DA0000100188804331B88984710BD162310B5EE
:103DB0000100188802331B88984710BDF8B54746A4
:103DC000CE4680B50F1E19D0142399460433040043
:103DD0000025012698464B461888434621681B88D3
:103DE000984701C4431E9841013540420640AF4206
:103DF000F1D13000C0BCB946B046F8BD0126F8E7A5
:103E0000124A936F9B0815D29066D166002905D09F
:103E1000FFE7FFE7FFE7516F106F704704B58021A0
:103E20000906C2175140002800D0C84301F030FFF6
:103E3000002104BDF0B5146E556E576F166FFFF775
:103E4000E3FF1466556657671667F0BD000000D0A3
:103E5000114A936F9B0813D210665166002905D052
:103E6000FFE7FFE7FFE7516F106F704704B50028C9
:103E700001D00020C04301F00BFF002104BDC0466B
:103E8000F0B5146E556E576F166FFFF7E5FF1466A9
:103E9000556657671667F0BD000000D094464E4A3D
:103EA000926F9208624601D230E0C046F0B54A4EA9
:103EB000B56F6D08FCD3346E756E776F366F00F09A
:103EC00025F89446444A1466556657671667624655
:103ED000F0BDC0469446404A926F9208624601D2B5
:103EE00058E0C046F0B53C4EB56F6D08FCD3346E5B
:103EF000756E776F366F00F04DF89446364A14664B
:103F00005566576716676246F0BDC046002B24DB36
:103F100011D000293EDA00B5C943404200D1013139
:103F200000F038F8C943404200D10131DB4352422E
:103F300000D1013300BD002AEBD1002801D10029B6
:103F400005D00020C90FC90701D1C043410800B501
:103F500001F096FE0022002300BD00B500290ADB17
:103F6000DB43524200D1013300F014F8C943404210
:103F700000D1013100BDC943404200D10131DB43D2
:103F8000524200D1013300F005F8DB43524200D128
:103F9000013300BD002923D1002B18D1002A0CD0F9
:103FA000BC460D4F38667A6600210023FFE7FFE725
:103FB000FFE77A6F386F67467047002801D00748DF
:103FC000010000B501F05CFE0022002300BD0200EC
:103FD0000B00002000217047000000D0FFFFFFFF12
:103FE000002B00D0BFE0130C28D1002AE7D080B40A
:103FF000114F39667A66FFE7FFE730B4040C7B6F38
:10400000396F1B0423433B667A66FFE7FFE7FFE750
:10401000C04684B27B6F3D6F1B0423433B667A66C8
:10402000FFE7FFE7C04600232C042D0C7A6F386FA2
:1040300000196941B0BC7047000000D0F0B594464B
:104040000025140E01D112020835140F01D11201FE
:104050000435940F01D192000235D40F01D15200E2
:104060000135D40B0134254F7C66254C3C660E0C83
:1040700093B2FFE7FFE7FFE73C6F6643360C770339
:10408000BE467343DF0B5B04C01AB941130C734384
:10409000DB18C91ACE086643360CB64493B2734394
:1040A0001F0F1B01C01AB941130C73431F0B1B05D3
:1040B000C01AB941860D8F023E436643360C092D66
:1040C00024DB520A7243801A7703460A6643360C91
:1040D00016235B1BDE40DF40BF1964466643821B2C
:1040E0007046043506330100D940A840C01900D3FA
:1040F0000131A24206D20023F0BD0000000000D032
:10410000FFFFFFFF121B0130F3D3F1E709277F1BED
:10411000FE406446A2B27243801A00D20139220CDA
:104120007243130C1204821A99410B007046043535
:1041300013370100F940A840801900D30131002B4A
:1041400002D1A2420AD2F0BD013000D30131121BCC
:10415000FAD2013BF8D1A24200D2F0BD013000D327
:104160000131121BF7E7F0B51C0C00D080E00CB455
:1041700000251C0A04D11B02160E33431202083517
:104180001C0B04D11B01160F3343120104359C0B89
:1041900004D19B00960F334392000235DC0B02D111
:1041A00092185B4101351C00971864410134464F59
:1041B0007C66464C3C660E0CFFE7FFE7FFE7C04617
:1041C0003C6F6643360C7703BE4697B27743C01BFD
:1041D00000D20139C01B00D201399FB27743C91BFD
:1041E000C91B170C77437E04FF0B801BB941CE0817
:1041F0006643360C0C2D33DBB644120B1F053A43D5
:104200001B0B97B27743C01B00D201399FB2774393
:10421000C91B170C77433E043F0C801BB941860D28
:104220008F023E43664329277F1BFE400C3D7746A5
:10423000AF40BF1930BCA2B2ABB272437343801A15
:104240009941220C7243130C1204801A9941020006
:104250000B000137001BA941F9D2781E0021F0BDE7
:104260000C277F1BFE4077467F0BAF40FF19E0E72E
:1042700000245D1C07D0144F7D663966FFE7FFE719
:10428000FFE7FFE73C6F95B29EB265436643401B74
:10429000B141150C1E0C6543664336042F0C3E439A
:1042A0002D04401BB141994204D202000B002000B2
:1042B0000021F0BD01D19042F7D3801A9941013419
:1042C0009942F2D3F6E70000000000D0FFFFFFFFA5
:1042D00044464D4656465F46F0B47047F0BCA04693
:1042E000A946B246BB46704748404140484018B4D2
:1042F0001B4B5B68FC46019308BD04DFD3480010EC
:1043000018B4174B1B68FC46019308BD00DFDD485D
:1043100000109446134A926F920809D2624618B46C
:104320000F4BDB68FC46019308BD0CDF954B00107A
:104330000C4AF0B5146E556E576F166F6246FFF754
:10434000EEFF084A1466556657671667F0BD18B445
:10435000034B9B68FC46019308BD08DF394A0010F7
:1043600068030020000000D0FFB55040424050409C
:1043700059404B40594000E0FFB5154F4C00640DCB
:1043800003D0BC4204D10C0314D80020090D090548
:104390005C00640D03D0BC4204D11C030AD8002287
:1043A0001B0D1B0501264B4009D44B4003D58B4206
:1043B00000D18242FFBD9942FCD19042FFBD0B4328
:1043C000DB1803431343F5D0C9434918FFBD000070
:1043D000FF07000000B5FFF7CFFF804100BDC046DA
:1043E00000B5FFF7C9FF01D9002000BD012000BDC5
:1043F00000B5FFF7B9FF01D9002000BD012000BDC5
:1044000000B5FFF7B1FF804100BD012040054A0023
:10441000121804D85A00121801D800207047012041
:1044200070470020704700000021002805D1704728
:10443000C1174840401AFAD0C90713B5064B1B688C
:1044400098470CBC441CA2401005120B0349091BE1
:1044500009051943114310BD643B00201F040000EF
:1044600010B54C00620D8023D218DB00D21A5B0518
:104470007E2A10DD9E3A13DACC1709034908194346
:104480005242D140640001341532202A05DAD0406E
:104490000843604310BD002010BD0846604310BDB6
:1044A000C80FC018013810BD18B4044B5B6AFC4635
:1044B000019308BD24DFC94D0010000068030020EF
:1044C00018B4044B1B6EFC46019308BD60DFD74E49
:1044D000001000006803002018B4044BDB6FFC469A
:1044E000019308BD7CDF614E0010000068030020CE
:1044F000024A034B00B500F0CBF900BD182D44541F
:10450000FB2119408A0002D3920D092A08DA18B457
:10451000064BDB6BFC46019308BD3CDF0B500010E3
:1045200000B5FFF7E5FF04BC9646F0E768030020FE
:104530008A0002D3920D092A08DA18B4064B1B6CC4
:10454000FC46019308BD40DF1B50001000B5FFF78B
:10455000CFFF04BC9646F0E768030020132370B534
:104560001D78012D15D010DD1C48FFF71FFC1C4CD9
:1045700001008022200000F0C9FF022D06D019485A
:10458000FFF70CFC184B186070BD154C174BA3645B
:10459000F5E7164B124C23606360A360E360236170
:1045A0006361A361E36123626362A362E3622363E5
:1045B0006363A363E36323646364A364E3642365C5
:1045C0006365A365E36523666366A366E3662367A5
:1045D0006367A367E367A364D1E7C0465344000061
:1045E000680300204C330000643B0020A148001009
:1045F000F0B557464E464546DE46E0B587B00292D6
:104600005A009A46530D9946109B4D0004006D0DBB
:10461000002B01D000221A609A4A95427DD04B4669
:10462000002B7AD0002D00D182E027000E009145AA
:1046300075D0013B0393AB4271DCCB0F0E03984660
:10464000330B9B4680235B039C465B4662461343C9
:104650001F005346060018036346000B0343029AEB
:104660000193039B0092AB4200D1AAE04346002B8A
:1046700000D1B7E033003C0000275E42A7414B4623
:10468000ED1A002D00DCC0E00120019B4042191111
:10469000FFF7DEFB002398464B4603935346AB4699
:1046A000029004931BE032009A40150033005246FA
:1046B00093401C004B464846D917009A019B00F0D6
:1046C0002DFE4346524693404B4498465B46260097
:1046D0002F009B1A361A8F419B46002B2BDD5B4621
:1046E000DA460C2B01DD0C239A46029ABB11534388
:1046F00051461D22521A1341202201335B105242AF
:1047000099468B18CFD5202332005B1ADA4013006C
:104710003A008A4015001D43C8E700275A4E38006A
:10472000310007B0F0BCBB46B246A946A046F0BD7A
:1047300000270026F3E7039B9946049B9A46009BBB
:10474000019CBC4200DD83E000D17DE0009B019C28
:10475000F61AA741BC4200DD8BE000D185E0009B4A
:10476000019CF61AA74102239C46E04432000098BF
:1047700001993B0092197B418B421ADC17D00099BA
:104780008A425AD05346002B02DA43465B4298468F
:10479000109B002B01D042461A604B463B4A30002A
:1047A0003900D21AFFF78CFE07000E00B7E78242ED
:1047B000E5D9009B019CF61AA74101239C46E044E1
:1047C000E0E7019B9F422FDD0098019943460018C6
:1047D0004941002B3FD1039B361A8F419946012353
:1047E0009846CFE74B46ED1A002D00DD4CE7019BC4
:1047F000BB42BBDC009B019CBC4201D1B342B5D89B
:10480000009B019CF61AA74133E000239846009BC9
:10481000019CF6186741002F2FDAF6186741022332
:104820005B429C46E044A1E7009A019B9F4201D174
:104830009642C9D827000E0071E7019A9342A1D190
:104840004346DB079ED5B4E7009BB34200D87DE723
:10485000002FDCDB8AE7039B801BB94199460123CB
:104860005B4206000F0098468CE7009BB34200D8DD
:1048700075E701239C46E04478E701235B429C46B0
:10488000E04473E7FF0700000000F07F33040000FE
:1048900010B5002482B00094FFF7AAFE02B010BD4C
:1048A00007B5604601880A0A0230DF2AFAD1C9B288
:1048B000820804D3028840880004104300E00068A6
:1048C000014A5050039007BD680300200FB403BC99
:1048D0000CBCF0B50124E407634000E0F0B50C0D1A
:1048E000CF0F661E3605891B640503D3C9434042BA
:1048F00000D30131640D03D0661CF60A07D0E41B17
:1049000000207F00791C89078912803C24031D0D3B
:10491000DF0F6E1E36059B1B6D0503D3DB43524232
:1049200000D301336D0D03D06E1CF60A07D0ED1BCA
:1049300000227F007B1C9B079B12803D2D032F1BB9
:10494000661B58D4A446202E46DA20371400BC40FB
:104950001D00BD40F24033412A4380185941CB0F1E
:1049600005D0C943C04300226442504151416246D0
:104970004D0D28D10D0D07D100281FD0241940411D
:104980004941013A0D0DF9D0640006D3013000D33E
:104990000131002C01D140084000013A0BD4941C95
:1049A000E40A04D112051144DB071944F0BDD9070C
:1049B000204B194300E0D9070020F0BD0029DDD1CC
:1049C000002CDBD1F0BD0132C6074008CD072843DB
:1049D0004908002EE1D0D9E73C2E29DA203E4037A5
:1049E0001400BC4000D00124F24014431A00BB4024
:1049F0001C43D317ACE7AC46202F08DA203604005E
:104A0000B4400D00B540F84039412843A5E73C2F9C
:104A10000CDA203F40360400B44000D00124F840B6
:104A200004430800B1400C43C117EAE71000190025
:104A3000002494E70000F07FF0B50C0D661E3605EB
:104A4000891BE60A6405640D02D0651CED0A04D0DA
:104A5000002001210905803C2403A4461C0D671E8B
:104A60003F05DB1BE70A6405640D02D0651CED0AF7
:104A700004D0002201231B05803C240377406444BA
:104A800097B484B296B27443070C7E43150C6F43FF
:104A900080B26843361802D3012000043F18300466
:104AA000350C00197D41844688B29AB250430C0CF3
:104AB00062431F0C7C438EB27E43921902D30126BF
:104AC0003604A4191604170C3618674101BC81B2CC
:104AD0009AB25143040C62431B0C5C4380B25843AE
:104AE000121802D30120000424181004130C4018DB
:104AF00063412D185E410020474106BC88B293B245
:104B000058430C0C6343120C544389B251435B1855
:104B100002D301210904641819041A0C091862410E
:104B20006D1856410020474118BCF902720D11431F
:104B3000F0026A0D1043ED020A0D03D16D194041D8
:104B40004941013B124E9B1B7600B3420ED26D00D1
:104B500007D30130002671416646354301D1400834
:104B600040001B05C918E4072144F0BD0BDA0133EE
:104B700006D1013004D101314F0D01D04908F2E7CF
:104B8000E1070020F0BD013631050020EBE7000011
:104B9000FF030000F0B51C0D671E3F05DB1BE70A95
:104BA0006405640D02D0661CF60A04D000220123BD
:104BB0001B05803C2403D0252D060026F6432E66D7
:104BC0001E096E66CE0FF619B44649004F0D02D08D
:104BD0007E1CF60A03D000200021403F3F033E1B0D
:104BE000B600B444013F7F05C91B49082E6F01364A
:104BF00076089C02950D25437543ED137543AD135F
:104C000001356D10F603761B0CB4CC02450D2C4318
:104C1000A2B2B3B25A43270C7B43350C6F43A4B204
:104C20006C431B1902D3012424043F191C041D0CDE
:104C3000A4187D4124196D41009A91B2ACB2614330
:104C4000170C7C432B0C5F4392B25A43A41802D337
:104C500001221204BF182204230C52187B41019C2C
:104C60006C431B19520ED9010A434401A01A81B2A8
:104C7000B2B2514303145A43360C734387B277439D
:104C8000D617D21900277E4136049B191704160C3B
:104C90007F185E417316ED18F301002680337541CD
:104CA000A90F06D16400690AE8055B0A184309D216
:104CB0002FE00422944480337541A90AA8059B0A79
:104CC000184326D3404149412404009A019B0D001A
:104CD0005543641B4343E41A95B286B27543170CDF
:104CE0007E43030C5F4392B25A43B61802D30122AB
:104CF0001204BF183204330C52197B4152429C41BA
:104D0000002C02D40022013051414008CA07104350
:104D1000490802B06246D7079210084BD218084BD8
:104D20009A4203D212058918C919F0BD0020002A41
:104D300001DC3900F0BD01331905F5E7FD03000082
:104D4000FE070000624618CA94465A46002A20DB35
:104D500004E0624618CA944600291ADAC018614174
:104D60005B463B415C46B4405246FA4022434446CF
:104D70004D4662416B41904699462B46B3403D41BA
:104D8000FC401C4352465B46A241AB4192469B46C7
:104D90007047C01AA1414B463B414C46B440424685
:104DA000FA40224354465D4662416B4192469B461F
:104DB0002B46B3403D41FC401C4342464B46A2417A
:104DC000AB41904699467047002200B5203200F072
:104DD00010F8080000BD002200B500F00CF8CA175A
:104DE0009A4200D100BDD8430121C907414000BD0E
:104DF00000220B150AD410B5944600F0A7F814143D
:104E0000013400DA0021CB17144C20470020002188
:104E100070476244343A0CD40C2A07DA04009140FB
:104E2000904052422032D440214310BDD843D94350
:104E300010BD203207D40C4694405242203211411A
:104E4000D040204310BD0800C917203203D452427D
:104E50002032104110BD1800190010BD134E001073
:104E60004A00520D144BD21A13DDFF2A1EDAD20566
:104E7000CB0FDB071A43C300400F0903490A08435D
:104E800010435B0001D301D0013070474308FBD2CF
:104E9000704702D0C80FC00770470A0312130132CF
:104EA000F8D1420F072AF5D1012200E0FF22C80FF6
:104EB00000028018C00570478003000000210A002E
:104EC000002104E000210A00C11704E000220023B1
:104ED00006E0C0460022CB1758405940C01A9941FD
:104EE00030B5184CA21A002903D1010010D00020BF
:104EF000203A4C1512D104D2013A001849414C0D08
:104F0000FAD3114CA24204D212058918DB07C91842
:104F100030BDD243520D00200021F5E703D4013A01
:104F200000184941FBD50B324405C00A4D05284302
:104F3000C90A640003D0002460416141E1E7E0D385
:104F40004408F8E732040000FE0700000A0DCC0F09
:104F5000531E1B05C91A520503D3C943404200D34F
:104F60000131520D03D0531CDB0A07D0121B002065
:104F70006400611C89078912803A1203014BD21A1E
:104F800070470000FF030000023225D40C2A1CDA0F
:104F90001125AD1A0B002B41083207350600EE40F3
:104FA000904091403143F0CC63431A1500235A419D
:104FB000554356435743BF02F412760576196741AD
:104FC000ED177F19801BB94170470C220020C917CB
:104FD000490001310905DBE70902030E194300020C
:104FE0005342203208D40C0019419440D840204349
:104FF00000225041514170470800C917203B203220
:10500000F1D50020002100227047F0B5FFF760F9CC
:1050100000F00EF800F030F806E0F0B5FFF758F9B0
:1050200000F006F800F046F8FFF758F9F0BD000070
:1050300000B5FFF78BFF30A4FFF7A6FF00242C4D2F
:105040002C4ED20702D3F6436D426641520004D281
:10505000A246A346A846B14603E0A046A146AA46FA
:10506000B3466EA4A44601271F26FFF772FE013740
:10507000013E212FF9D100BD594684B28DB26C4357
:10508000061475430B145E4382B25A43AD18EA17F7
:1050900000D7D2431204B6182A042B0C12197341FC
:1050A000404649469D009B17920F2A4390419941E3
:1050B0003E2210E7494684B28DB26C430614754314
:1050C0000B145E4382B25A43AD18EA1700D7D2439D
:1050D0001204B6182A042B0C121973415046594673
:1050E0009D009B17920F2A43504159413E22F2E600
:1050F000BB4DF09DC556F6367D5100001A61140077
:1051000085880A00FB211900F0B5FFF7E1F8404D52
:105110000C002C4001D0AC4202D1090D0905002041
:105120001C002C4001D0AC4202D11B0D1B050022FB
:105130000026ED02002B04D502266B40694000D406
:1051400076424F1904D599420CDD0136694003E0DF
:10515000BB4207DA013E6B40070010003A000F0027
:1051600019003B0040B4002A0FD1002B0AD05C008C
:105170006415013409D14C006415013402D10139A0
:10518000013B02E0002000212EE0FFF703FD3E225C
:10519000FFF722FE82468B46002000218046012236
:1051A000920791461DA4A44601271F26FFF7CAFDBA
:1051B0000137013E212FF9D14A4653460C3A0124CA
:1051C0006407002752081B0005D493410019794158
:1051D0006408F7D104E05341001BB9416408F1D1E0
:1051E000CE0749104008304340BC002E0AD0094C7D
:1051F000094D01D5E443ED43F60701D1001969419A
:10520000001969413D22FFF766FEFFF767F8F0BD20
:105210000000F07F8D305A88A8F64332694FBB6199
:105220000567AC1DB16E4096FCBAAD0F72DB0BABDF
:10523000A66EF50739BD9FE576ABFE034B6297BAC4
:105240005BD5FF01D694DBDDAAFAFF005DEAEE56DE
:1052500055FF7F006E77B7AAEAFF3F00BCBB5555EC
:10526000FDFF1F00DEADAAAAFFFF0F006F5555F529
:10527000FFFF0700ABAAAAFEFFFF03005555D5FFAD
:10528000FFFF0100ABAAFAFFFFFF00005555FFFF2B
:10529000FF7F0000ABEAFFFFFF3F000055FDFFFF6F
:1052A000FF1F0000ABFFFFFFFF0F0000F5FFFFFF38
:1052B000FF070000FFFFFFFFFF03000000000000EA
:1052C00000020000000000000001000000000000DB
:1052D000800000000000000040000000000000000E
:1052E000200000000000000010000000000000008E
:1052F00008000000000000000400000000000000A2
:10530000020000000000000001000000000000801A
:105310000000000000000040000000005143434333
:10532000C9188C46110C83B24B4310B4040C614372
:1053300092B280B2504362431C041B0C001910BC93
:1053400059411304120CC0185141614470470000C8
:10535000C10FC90700D54042002817D0F44603B456
:105360000B4B1B68984706BC81409E3840428031F9
:1053700007D20B0607D04900490AC005104308436D
:1053800060470130F8E7490A8902F5E770470000F5
:10539000643B002041000A0E80231B067E2A0BDDA1
:1053A0009E3A0BDAC1174002400818435242D040DF
:1053B000490001314843704700207047C00FC018B2
:1053C00001387047C0420DD300B5400040080021AD
:1053D00000F012F8002801D4404200BD80200006F1
:1053E00000BD0000034BDB69FC4618471CDFA954D5
:1053F0000010000068040020014B5B6A18470000A1
:1054000068040020034BDB6FFC4618477CDFC15467
:105410000010000068040020132310B512481C7807
:10542000FEF7C4FC0100012C0AD003DD80220F48E6
:1054300000F06CF80E48FEF7B1FC0E4B186010BD82
:105440000A4C5422200000F061F80B4B6365A36501
:10545000E36523666366A366E36623676367A36702
:10546000E3672362E361E5E7534600006804002038
:105470004C330000643B00207D54001007B56046AB
:1054800001880A0A0230DF2AFAD1C9B2820804D39D
:10549000028840880004104300E00068014A505030
:1054A000039007BD680400200021C21580328032BD
:1054B00001D0024A1047002070470000CD2A0000AA
:1054C000C30FDB0741000A0E07D0FF2A08D00909E5
:1054D000054A891819434007704719000020704792
:1054E0000249C918FAE70000000000380000F07F08
:1054F00001480421014B184710020020BD3D001057
:10550000014B1B681847000010020020014B5B682C
:105510001847000010020020030010B50800110019
:105520001B68984710BDC046F0B546464F46D64664
:10553000C0B5437C80460E001700002B46D0002AE1
:105540003FDD4B1E9946244B0125002400209A463E
:105550000DE04B461B5D0D3B5A425341325DDBB2C1
:105560000A2A0BD02B00013401359F421ADD002C92
:10557000EFD14346325D1B7C0A2AF3D1002BF1D1D7
:10558000A04204DA4346211A1B6830189847434664
:1055900050461B6802219847013428002B00013532
:1055A0009F42E4DC874204DD4346391A1B68301809
:1055B0009847F619013E33780D3B5A425341424613
:1055C0001374E0BCBA46B146A846F0BD03681100AA
:1055D00030009847F5E7C0466C650010F0B55746B7
:1055E0004E464546DE461C00D023E0B51B061F682C
:1055F000344B83B006000D00180001A991469A466D
:1056000000F04EFB8046002808D1019B7FB29F42EC
:1056100004D0504600F04CFB012398466B1C03D18C
:10562000300000F0F3FA0500002C27D1264F274B5D
:105630001C68002C18D04B46002B21D1244B9946D6
:1056400002E0E468002C0FD02368002BF9D04B4611
:105650001B68002B01D0A342F3D120002A003100A7
:10566000B847E468002CEFD14346002B25D103B0A6
:10567000F0BCBB46B246A946A046F0BD154FD6E7E2
:10568000134B99460A239B4602E0E468002CEBD0BA
:105690002368002BF9D04B461B68002B01D0A34296
:1056A000F3D12A0031002000B8475A466B4620004B
:1056B0001A7101A90122B847E7E7504600F0D8FA6D
:1056C000D5E7C0463C0200202955001004160020F2
:1056D0000826002019550010F0B5CE46474680B583
:1056E00083B06B46DE1CD02330701B061C681F4B3A
:1056F000804601A91800994600F0D2FA071E20D072
:105700001B4B1C68002C28D01A4D02E0E468002CCA
:105710000FD02368002BF9D02B68002B01D0A342B7
:10572000F4D1200001223100FFF7FEFEE468002CD6
:10573000EFD1002F11D1404603B0C0BCB946B046EE
:10574000F0BD019B64B29C420BD0484600F0B0FA19
:10575000074B01271C68002CD6D1484600F088FA78
:10576000E9E7034B1C68002CCED1E4E73C020020A3
:10577000041600200826002070B5040000F046FA48
:1057800000230100050001222000FFF727FF084B3E
:105790001C68002C06D06368002B05D09847E4688D
:1057A000002CF8D1280070BDE468002CF3D1F9E793
:1057B000041600200A4A1368002B05D10CE01A00D9
:1057C000DB680C32002B07D09842F8D1002902D1B7
:1057D000C3681360C16070470029FCD01060FAE70D
:1057E0000416002010B500F043F810BDF0B50D1EF2
:1057F00015DD0E4B0D271A680D4B4519D31859426C
:105800004B410C495B005E5E20210478A64207D024
:1058100093691942FCD101301460A842F5D1F0BD62
:1058200093691942FCD11760F2E7C046843B00201F
:105830000080FCBF803B002030B504000D1E12DD4F
:1058400000201021094B013C1A689369194208D1C4
:10585000013093691942FCD1136823548542F4D175
:1058600030BD0028FCD103204042F9E7843B0020F2
:10587000E12110B50B4B0C481B780C4B49021B78EF
:105880000B4B1860FCF7C0FC02210020FBF754FD15
:1058900002210120FBF750FD01210648FFF78AFF96
:1058A00010BDC04608660010004003400C660010A2
:1058B000843B00202002002003BDC04610B5040038
:1058C000FBF77AFFA04710BDF0B5040087B00F20AA
:1058D0000E001700FBF7FEFD002105000F20FBF76F
:1058E000E7FD002300220092019301230293D023BD
:1058F00004960594002600240121022003971B062C
:10590000002C14D01A6D1042FCD05C6540BF1A6D9B
:10591000114203D120BF1A6D1142FBD09A6DA242F1
:105920000AD000266C46B200A458E9E79A6D1A6DB9
:105930001142FBD140BFE5E70136052EF2D929001F
:105940000F20FBF7B5FD07B0F0BDC0460B4B0C4A6E
:1059500010B5934201D201235B421900094A9850C5
:1059600004329B50084A094B0948CA50094B9A68AF
:10597000044B9C466144FFF7A7FF10BD00080420BC
:1059800000000420F4070000BD580010FC070000D0
:10599000B958001000ED00E010B5114C114B226811
:1059A0009A4210D1104B62689A420CD10F4BA268F8
:1059B0009A4208D100230E482360FEF7EFF9002138
:1059C000030000209847074B00212360064B09483D
:1059D0006360064BA360FCF72BF90023236010BD26
:1059E0005C020020DE8116F0299B72BD7ABE59D37D
:1059F00055420000400D0300F0B5D6464F464646DE
:105A00008846C0B505240600FBF7F8FC43461F791D
:105A10001C57284B8146F01843425841264B9A4662
:105A200083009C4653466246985801222023BA4080
:105A3000DB1B013A002C32DB9C422DDCA24015001E
:105A4000104229D1002F1AD043465A7819781202F1
:105A5000114342469B78D2781B040B4312061A432B
:105A60009046002241465300C95A4B0B00D10919F8
:105A7000131912339B00013299519742F2D85346C1
:105A8000624605439D504846FBF7C4FC2000E0BC3D
:105A9000BA46B146A846F0BD0848FCF79FFC002B6B
:105AA00002DAF9E7013BF7D315009D401C000542DF
:105AB000F8D1C7E70000D0AF84150020D4650010EE
:105AC000F0B54E464546DE4657468A464900E0B5A3
:105AD0000D0080465544ED0045448946290009AC37
